{
  "contractName": "ApprovalQueue",
  "abi": [
    {
      "anonymous": false,
      "inputs": [
        {
          "indexed": false,
          "name": "institution",
          "type": "address"
        }
      ],
      "name": "NewApprovalSubmitted",
      "type": "event"
    },
    {
      "constant": false,
      "inputs": [
        {
          "name": "approvalRequestType",
          "type": "string"
        },
        {
          "name": "requestData",
          "type": "bytes32[]"
        }
      ],
      "name": "submitApprovalRequest",
      "outputs": [],
      "payable": false,
      "stateMutability": "nonpayable",
      "type": "function"
    },
    {
      "constant": true,
      "inputs": [
        {
          "name": "submittingAddress",
          "type": "address"
        }
      ],
      "name": "approveRequest",
      "outputs": [],
      "payable": false,
      "stateMutability": "view",
      "type": "function"
    },
    {
      "constant": true,
      "inputs": [
        {
          "name": "submittingAddress",
          "type": "address"
        }
      ],
      "name": "isApprovalStored",
      "outputs": [
        {
          "name": "isStored",
          "type": "bool"
        }
      ],
      "payable": false,
      "stateMutability": "view",
      "type": "function"
    },
    {
      "constant": true,
      "inputs": [],
      "name": "getApprovalRequestAddresses",
      "outputs": [
        {
          "name": "",
          "type": "address[]"
        }
      ],
      "payable": false,
      "stateMutability": "view",
      "type": "function"
    },
    {
      "constant": true,
      "inputs": [
        {
          "name": "submittingAddress",
          "type": "address"
        }
      ],
      "name": "getRequestData",
      "outputs": [
        {
          "name": "",
          "type": "bytes32[]"
        }
      ],
      "payable": false,
      "stateMutability": "view",
      "type": "function"
    },
    {
      "constant": true,
      "inputs": [
        {
          "name": "x",
          "type": "bytes32"
        }
      ],
      "name": "bytes32ToString",
      "outputs": [
        {
          "name": "",
          "type": "string"
        }
      ],
      "payable": false,
      "stateMutability": "pure",
      "type": "function"
    },
    {
      "constant": false,
      "inputs": [],
      "name": "kill",
      "outputs": [],
      "payable": false,
      "stateMutability": "nonpayable",
      "type": "function"
    }
  ],
  "bytecode": "0x608060405234801561001057600080fd5b50610a8d806100206000396000f3fe608060405234801561001057600080fd5b506004361061009a576000357c0100000000000000000000000000000000000000000000000000000000900480637dbe8b70116100785780637dbe8b70146101095780639201de5514610161578063db80ec93146101f3578063ff2fa5c0146102195761009a565b8063061dff9a1461009f57806306a03379146100c757806341c0e1b514610101575b600080fd5b6100c5600480360360208110156100b557600080fd5b5035600160a060020a0316610343565b005b6100ed600480360360208110156100dd57600080fd5b5035600160a060020a03166103bc565b604080519115158252519081900360200190f35b6100c56103e1565b6101116103e4565b60408051602080825283518183015283519192839290830191858101910280838360005b8381101561014d578181015183820152602001610135565b505050509050019250505060405180910390f35b61017e6004803603602081101561017757600080fd5b5035610447565b6040805160208082528351818301528351919283929083019185019080838360005b838110156101b85781810151838201526020016101a0565b50505050905090810190601f1680156101e55780820380516001836020036101000a031916815260200191505b509250505060405180910390f35b6101116004803603602081101561020957600080fd5b5035600160a060020a03166105dc565b6100c56004803603604081101561022f57600080fd5b81019060208101813564010000000081111561024a57600080fd5b82018360208201111561025c57600080fd5b8035906020019184600183028401116401000000008311171561027e57600080fd5b91908080601f01602080910402602001604051908101604052809392919081815260200183838082843760009201919091525092959493602081019350359150506401000000008111156102d157600080fd5b8201836020820111156102e357600080fd5b8035906020019184602083028401116401000000008311171561030557600080fd5b919080806020026020016040519081016040528093929190818152602001838360200280828437600092019190915250929550610657945050505050565b61034c816103bc565b15156103b957604080517f08c379a000000000000000000000000000000000000000000000000000000000815260206004820152601260248201527f417070726f76616c206e6f7420666f756e640000000000000000000000000000604482015290519081900360640190fd5b50565b600160a060020a03811660009081526020819052604090206003015460ff165b919050565b33ff5b6060600180548060200260200160405190810160405280929190818152602001828054801561043c57602002820191906000526020600020905b8154600160a060020a0316815260019091019060200180831161041e575b505050505090505b90565b6040805160208082528183019092526060918291906020820181803883390190505090506000805b60208110156104f8576008810260020a85027fff000000000000000000000000000000000000000000000000000000000000008116156104ef578084848151811015156104b857fe5b9060200101907effffffffffffffffffffffffffffffffffffffffffffffffffffffffffffff1916908160001a9053506001909201915b5060010161046f565b506060816040519080825280601f01601f191660200182016040528015610526576020820181803883390190505b50905060005b828110156105d357838181518110151561054257fe5b9060200101517f010000000000000000000000000000000000000000000000000000000000000090047f010000000000000000000000000000000000000000000000000000000000000002828281518110151561059b57fe5b9060200101907effffffffffffffffffffffffffffffffffffffffffffffffffffffffffffff1916908160001a90535060010161052c565b50949350505050565b60606105e7826103bc565b156103dc57600160a060020a038216600090815260208181526040918290206002018054835181840281018401909452808452909183018282801561064b57602002820191906000526020600020905b815481526020019060010190808311610637575b505050505090506103dc565b3360008181526020819052604090205474010000000000000000000000000000000000000000900460ff16156106d8576040517f08c379a0000000000000000000000000000000000000000000000000000000008152600401808060200182810382526045815260200180610a1d6045913960600191505060405180910390fd5b3360008181526020819052604090206003015460ff1615610744576040517f08c379a00000000000000000000000000000000000000000000000000000000081526004018080602001828103825260298152602001806109f46029913960400191505060405180910390fd5b61074c6108ea565b338082526001602080840182815260408086018a8152606087018a905260808701859052600095865285845294208551815492511515740100000000000000000000000000000000000000000274ff000000000000000000000000000000000000000019600160a060020a039290921673ffffffffffffffffffffffffffffffffffffffff199094169390931716919091178155925180518594936107f693908501920190610921565b506060820151805161081291600284019160209091019061099f565b5060808201516003909101805460a090930151600160a060020a03166101000274ffffffffffffffffffffffffffffffffffffffff001992151560ff1990941693909317919091169190911790556001805480820182556000919091527fb10e2d527612073b26eecdfd717e6a320cf44b4afac2b0732d9fcbe2b7fa0cf601805473ffffffffffffffffffffffffffffffffffffffff19163390811790915560408051918252517f62db2a37c394b9a845cfefd9624c1c41185d89a3ea9790c7ccde238ecdc6302f9181900360200190a15050505050565b6040805160c0810182526000808252602082018190526060928201839052828201929092526080810182905260a081019190915290565b828054600181600116156101000203166002900490600052602060002090601f016020900481019282601f1061096257805160ff191683800117855561098f565b8280016001018555821561098f579182015b8281111561098f578251825591602001919060010190610974565b5061099b9291506109d9565b5090565b82805482825590600052602060002090810192821561098f579160200282018281111561098f578251825591602001919060010190610974565b61044491905b8082111561099b57600081556001016109df56fe5468697320617070726f76616c2068617320616c7265616479206265656e207375626d697474656421596f75206861766520616e206f75747374616e64696e6720726571756573742c20706c65617365207761697420666f72207468617420746f2062652070726f636573736564a165627a7a72305820b153e94859397cad5dd4e69b78b1ee9c3cb903bf6ad957e8352d42292492c41f0029",
  "source": "pragma solidity ^0.5.3;\n\n\n/**\n* Initially, each contract that required some sort of approval functionality, whether that was for approving voters, or new institution\n* admins, contained their own unique approval queues. That approach proved to be in violation of the DRY principle, as the underlying requirements\n* for approving a request were the same. Therefore, the concept was generalised into this utility contract, with the approval data required to be\n* \"split\" around some basic regex - in this case, a comma.\n*/\ncontract ApprovalQueue {\n\n    // Store a request from a prospective admin who would like to register their Institution.\n    // The flag \"isPending\" is included to stop potential abuse of the approval que - the intent\n    // is that only one approval per unique user address can be submitted at a time.\n    // The fields included are what is required to construct a new Institution using the\n    // Institution contract's constructor.\n    // TODO: Will need to initialise isPending to true upon struct creation.\n    struct ApprovalRequest {\n        address submitter; // When constructing the unique request types, use this for the address, e.g. adminAddress, don't duplicate their address in data\n        bool isPending;\n        string approvalType;\n        bytes32[] data;\n        bool isInitialised;\n        address election;\n    }\n\n    // Store ApprovalRequests mapped by prospective admin addresses so they can be accessed without iteration. This\n    // limits gas costs. This also means that we can efficiently keep track of whether\n    // or not an address is stored, because the Struct that is mapped to the address contains\n    // a flag that can evaulated to see if an address exists.\n    mapping(address => ApprovalRequest) _approvalRequestQueue;\n\n    event NewApprovalSubmitted(address institution);\n\n    address[] _approvalRequestArray;\n\n    function submitApprovalRequest(string memory approvalRequestType, bytes32[] memory requestData)\n    public onlyOneRequest(msg.sender) isDuplicateApproval(msg.sender) {\n        ApprovalRequest memory newApprovalRequest;\n\n        // Initialise new approval request\n        newApprovalRequest.submitter = msg.sender;\n        newApprovalRequest.isPending = true;  // TODO I NEED TO UPDATE THESE VALUES ON APPROVAL\n        newApprovalRequest.approvalType = approvalRequestType;\n        newApprovalRequest.data = requestData;\n        newApprovalRequest.isInitialised = true;\n\n        // Add the approval request to the approval queue mapping, mapped by the\n        // prospective admin's address.\n        _approvalRequestQueue[msg.sender] = newApprovalRequest;\n\n        // Add to array so address state can be discovered by iteration.\n        _approvalRequestArray.push(msg.sender);\n\n        emit NewApprovalSubmitted(msg.sender);\n    }\n\n    /**\n     *\n     * @dev inherriting contracts must override this based on their requirements.\n     */\n    function approveRequest(address submittingAddress) public  view {\n        require(isApprovalStored(submittingAddress), \"Approval not found\");\n    }\n\n    modifier onlyOneRequest(address submittingAddress) {\n        require(!_approvalRequestQueue[submittingAddress].isPending, \"You have an outstanding request, please wait for that to be processed\");\n        _;\n    }\n\n    modifier isDuplicateApproval(address submittingAddress) {\n        require(!_approvalRequestQueue[submittingAddress].isInitialised, \"This approval has already been submitted!\");\n        _;\n    }\n\n    function isApprovalStored(address submittingAddress) public view returns(bool isStored) {\n        return _approvalRequestQueue[submittingAddress].isInitialised;\n    }\n\n    function getApprovalRequestAddresses() public view returns (address[] memory) {\n        return _approvalRequestArray;\n    }\n    \n\n/*\n    function isCorrectApprovalType(address submittingAddress, string memory approvalRequestType) public {\n        require(_approvalRequestQueue[submittingAddress].approvalType.compareTo(approvalRequestType),\"This approval has already been submitted!\");\n        _;\n    } */\n    /*\n    function getRequest(address submittingAddress) public view returns(bool, string memory, bytes32[] memory ) {\n        // require(isAdminStored(storedAdmin), \"Admin address not found\"); // TODO shouldn't need this, as we'll be using the array as the index.\n        if (isApprovalStored(submittingAddress)) { \n            return (_approvalRequestQueue[submittingAddress].isPending, _approvalRequestQueue[submittingAddress].approvalType, _approvalRequestQueue[submittingAddress].data);\n        }\n    } */\n    \n    function getRequestData(address submittingAddress) public view returns(bytes32[] memory ) {\n        // require(isAdminStored(storedAdmin), \"Admin address not found\"); // TODO shouldn't need this, as we'll be using the array as the index.\n        if (isApprovalStored(submittingAddress)) { // TODO this might not be reachable as the return is in the if if it's anything like Java and\n        //the comment above should apply about using the array as the inex\n            return  _approvalRequestQueue[submittingAddress].data;\n        }\n    }\n\n    /**\n     * Helper method to get data from a request\n     * Taken from https://ethereum.stackexchange.com/questions/29295/how-to-convert-a-bytes-to-string-in-solidity\n     */\n    function bytes32ToString(bytes32 x) public pure returns (string memory) {\n        bytes memory bytesString = new bytes(32);\n        uint charCount = 0;\n        for (uint j = 0; j < 32; j++) {\n            byte char = byte(bytes32(uint(x) * 2 ** (8 * j)));\n            if (char != 0) {\n                bytesString[charCount] = char;\n                charCount++;\n            }\n        }\n        bytes memory bytesStringTrimmed = new bytes(charCount);\n        for (uint j = 0; j < charCount; j++) {\n            bytesStringTrimmed[j] = bytesString[j];\n        }\n        return string(bytesStringTrimmed);\n    }\n\n\n    /**\n     * Self-destruct this contract // TODO expand explanation.\n     * Kill() method taken and modified from: https://kalis.me/check-events-solidity-smart-contract-test-truffle/\n     */ // TODO add owner modifier to this\n    function kill() external {\n        selfdestruct(msg.sender);\n    }\n\n}",
  "sourcePath": "/Users/erdi/git/final-year-project/dapp-backend/contracts/ApprovalQueue.sol",
  "compiler": {
    "name": "solc",
    "version": "0.5.3+commit.10d17f24.Emscripten.clang"
  },
  "schemaVersion": "3.0.11",
  "updatedAt": "2019-07-25T02:24:59.824Z",
  "devdoc": {
    "methods": {
      "approveRequest(address)": {
        "details": "inherriting contracts must override this based on their requirements."
      }
    }
  },
  "userdoc": {
    "methods": {
      "bytes32ToString(bytes32)": {
        "notice": "Helper method to get data from a request Taken from https://ethereum.stackexchange.com/questions/29295/how-to-convert-a-bytes-to-string-in-solidity"
      },
      "kill()": {
        "notice": "Self-destruct this contract // TODO expand explanation. Kill() method taken and modified from: https://kalis.me/check-events-solidity-smart-contract-test-truffle/"
      }
    },
    "notice": "Initially, each contract that required some sort of approval functionality, whether that was for approving voters, or new institution admins, contained their own unique approval queues. That approach proved to be in violation of the DRY principle, as the underlying requirements for approving a request were the same. Therefore, the concept was generalised into this utility contract, with the approval data required to be \"split\" around some basic regex - in this case, a comma."
  }
}