{
  "contractName": "Election",
  "abi": [
    {
      "constant": true,
      "inputs": [],
      "name": "_victor",
      "outputs": [
        {
          "name": "",
          "type": "address"
        }
      ],
      "payable": false,
      "stateMutability": "view",
      "type": "function"
    },
    {
      "constant": true,
      "inputs": [],
      "name": "_institution",
      "outputs": [
        {
          "name": "",
          "type": "address"
        }
      ],
      "payable": false,
      "stateMutability": "view",
      "type": "function"
    },
    {
      "constant": true,
      "inputs": [],
      "name": "_electionStatus",
      "outputs": [
        {
          "name": "",
          "type": "uint8"
        }
      ],
      "payable": false,
      "stateMutability": "view",
      "type": "function"
    },
    {
      "constant": true,
      "inputs": [
        {
          "name": "",
          "type": "address"
        }
      ],
      "name": "_candidateMapping",
      "outputs": [
        {
          "name": "name",
          "type": "string"
        },
        {
          "name": "isInitialised",
          "type": "bool"
        }
      ],
      "payable": false,
      "stateMutability": "view",
      "type": "function"
    },
    {
      "constant": true,
      "inputs": [
        {
          "name": "",
          "type": "uint256"
        }
      ],
      "name": "_candidateArray",
      "outputs": [
        {
          "name": "",
          "type": "address"
        }
      ],
      "payable": false,
      "stateMutability": "view",
      "type": "function"
    },
    {
      "constant": true,
      "inputs": [
        {
          "name": "",
          "type": "address"
        }
      ],
      "name": "_voterMapping",
      "outputs": [
        {
          "name": "isInitialised",
          "type": "bool"
        },
        {
          "name": "votingTokenBalance",
          "type": "uint256"
        }
      ],
      "payable": false,
      "stateMutability": "view",
      "type": "function"
    },
    {
      "constant": true,
      "inputs": [],
      "name": "_votingToken",
      "outputs": [
        {
          "name": "",
          "type": "address"
        }
      ],
      "payable": false,
      "stateMutability": "view",
      "type": "function"
    },
    {
      "constant": true,
      "inputs": [],
      "name": "_votingTokenAuthorisation",
      "outputs": [
        {
          "name": "",
          "type": "address"
        }
      ],
      "payable": false,
      "stateMutability": "view",
      "type": "function"
    },
    {
      "constant": true,
      "inputs": [],
      "name": "_description",
      "outputs": [
        {
          "name": "",
          "type": "string"
        }
      ],
      "payable": false,
      "stateMutability": "view",
      "type": "function"
    },
    {
      "constant": true,
      "inputs": [
        {
          "name": "",
          "type": "uint256"
        }
      ],
      "name": "_voterAddressArray",
      "outputs": [
        {
          "name": "",
          "type": "address"
        }
      ],
      "payable": false,
      "stateMutability": "view",
      "type": "function"
    },
    {
      "inputs": [
        {
          "name": "institution",
          "type": "address"
        },
        {
          "name": "votingTokenAuthorisation",
          "type": "address"
        },
        {
          "name": "votingToken",
          "type": "address"
        },
        {
          "name": "description",
          "type": "string"
        },
        {
          "name": "openingTime",
          "type": "uint256"
        },
        {
          "name": "closingTime",
          "type": "uint256"
        }
      ],
      "payable": false,
      "stateMutability": "nonpayable",
      "type": "constructor"
    },
    {
      "constant": false,
      "inputs": [],
      "name": "beginElection",
      "outputs": [],
      "payable": false,
      "stateMutability": "nonpayable",
      "type": "function"
    },
    {
      "constant": false,
      "inputs": [],
      "name": "concludeElection",
      "outputs": [],
      "payable": false,
      "stateMutability": "nonpayable",
      "type": "function"
    },
    {
      "constant": false,
      "inputs": [
        {
          "name": "candidate",
          "type": "address"
        },
        {
          "name": "weight",
          "type": "uint256"
        }
      ],
      "name": "vote",
      "outputs": [],
      "payable": false,
      "stateMutability": "nonpayable",
      "type": "function"
    },
    {
      "constant": false,
      "inputs": [
        {
          "name": "admin",
          "type": "address"
        },
        {
          "name": "candidateName",
          "type": "string"
        },
        {
          "name": "candidateAddress",
          "type": "address"
        }
      ],
      "name": "addNewCandidate",
      "outputs": [],
      "payable": false,
      "stateMutability": "nonpayable",
      "type": "function"
    },
    {
      "constant": true,
      "inputs": [
        {
          "name": "candidate",
          "type": "address"
        }
      ],
      "name": "isCandidateAddressStored",
      "outputs": [
        {
          "name": "",
          "type": "bool"
        }
      ],
      "payable": false,
      "stateMutability": "view",
      "type": "function"
    },
    {
      "constant": false,
      "inputs": [
        {
          "name": "voter",
          "type": "address"
        },
        {
          "name": "admin",
          "type": "address"
        },
        {
          "name": "tokenAmount",
          "type": "uint256"
        }
      ],
      "name": "addNewVoter",
      "outputs": [],
      "payable": false,
      "stateMutability": "nonpayable",
      "type": "function"
    },
    {
      "constant": true,
      "inputs": [
        {
          "name": "voter",
          "type": "address"
        }
      ],
      "name": "isVoterAddressStored",
      "outputs": [
        {
          "name": "",
          "type": "bool"
        }
      ],
      "payable": false,
      "stateMutability": "view",
      "type": "function"
    },
    {
      "constant": true,
      "inputs": [
        {
          "name": "candidate",
          "type": "address"
        }
      ],
      "name": "getCandidateTokenBalance",
      "outputs": [
        {
          "name": "",
          "type": "uint256"
        }
      ],
      "payable": false,
      "stateMutability": "view",
      "type": "function"
    },
    {
      "constant": true,
      "inputs": [],
      "name": "getTokenBalance",
      "outputs": [
        {
          "name": "",
          "type": "uint256"
        }
      ],
      "payable": false,
      "stateMutability": "view",
      "type": "function"
    },
    {
      "constant": true,
      "inputs": [],
      "name": "getVoterAddresses",
      "outputs": [
        {
          "name": "",
          "type": "address[]"
        }
      ],
      "payable": false,
      "stateMutability": "view",
      "type": "function"
    },
    {
      "constant": true,
      "inputs": [
        {
          "name": "candidate",
          "type": "address"
        }
      ],
      "name": "getCandidateName",
      "outputs": [
        {
          "name": "",
          "type": "string"
        }
      ],
      "payable": false,
      "stateMutability": "view",
      "type": "function"
    },
    {
      "constant": true,
      "inputs": [],
      "name": "getCandidateAddresses",
      "outputs": [
        {
          "name": "",
          "type": "address[]"
        }
      ],
      "payable": false,
      "stateMutability": "view",
      "type": "function"
    },
    {
      "constant": true,
      "inputs": [],
      "name": "getDescription",
      "outputs": [
        {
          "name": "",
          "type": "string"
        }
      ],
      "payable": false,
      "stateMutability": "view",
      "type": "function"
    },
    {
      "constant": true,
      "inputs": [],
      "name": "getVictor",
      "outputs": [
        {
          "name": "",
          "type": "address"
        }
      ],
      "payable": false,
      "stateMutability": "view",
      "type": "function"
    }
  ],
  "bytecode": "0x60806040523480156200001157600080fd5b50604051620013b7380380620013b7833981018060405260c08110156200003757600080fd5b81516020830151604084015160608501805193959294919391830192916401000000008111156200006757600080fd5b820160208101848111156200007b57600080fd5b81516401000000008111828201871017156200009657600080fd5b505060208281015160409093015160038054600160a060020a038a8116600160a060020a031992831617909255600480548c84169216919091179055600280549189166101000261010060a860020a03199092169190911760ff1916905582519295509293506200010d9160059186019062000122565b5060009190915560015550620001c792505050565b828054600181600116156101000203166002900490600052602060002090601f016020900481019282601f106200016557805160ff191683800117855562000195565b8280016001018555821562000195579182015b828111156200019557825182559160200191906001019062000178565b50620001a3929150620001a7565b5090565b620001c491905b80821115620001a35760008155600101620001ae565b90565b6111e080620001d76000396000f3fe608060405234801561001057600080fd5b5060043610610174576000357c0100000000000000000000000000000000000000000000000000000000900480636c4e4731116100e0578063ca217a4b11610099578063ca217a4b1461056c578063cde419a414610574578063cfa84dfe1461057c578063e9d2b91414610584578063f8eb29cb146105aa578063fed44763146105c757610174565b80636c4e4731146104385780638155f7361461044057806382b2e25714610448578063953ea0ea1461046257806398a60220146104a3578063a4d822251461056457610174565b80632a0e1b4f116101325780632a0e1b4f146102d8578063331502d5146102e05780633effd1851461030c5780634f5a7273146103b55780635eefe5be146103ef5780635f74bbde1461040c57610174565b80629808e6146101795780630a16e30b146101b15780631a092541146102095780631b95f76b146102865780631e0efcf31461028e578063240bbd8c146102b4575b600080fd5b6101af6004803603606081101561018f57600080fd5b50600160a060020a038135811691602081013590911690604001356105ed565b005b6101b96107b6565b60408051602080825283518183015283519192839290830191858101910280838360005b838110156101f55781810151838201526020016101dd565b505050509050019250505060405180910390f35b610211610819565b6040805160208082528351818301528351919283929083019185019080838360005b8381101561024b578181015183820152602001610233565b50505050905090810190601f1680156102785780820380516001836020036101000a031916815260200191505b509250505060405180910390f35b6101af6108a6565b610211600480360360208110156102a457600080fd5b5035600160a060020a03166108bc565b6102bc610967565b60408051600160a060020a039092168252519081900360200190f35b6102bc610976565b6102e8610985565b604051808260028111156102f857fe5b60ff16815260200191505060405180910390f35b6103326004803603602081101561032257600080fd5b5035600160a060020a031661098e565b604051808060200183151515158152602001828103825284818151815260200191508051906020019080838360005b83811015610379578181015183820152602001610361565b50505050905090810190601f1680156103a65780820380516001836020036101000a031916815260200191505b50935050505060405180910390f35b6103db600480360360208110156103cb57600080fd5b5035600160a060020a0316610a38565b604080519115158252519081900360200190f35b6102bc6004803603602081101561040557600080fd5b5035610a56565b6101af6004803603604081101561042257600080fd5b50600160a060020a038135169060200135610a7e565b6102bc610bbd565b6101b9610bcc565b610450610c2c565b60408051918252519081900360200190f35b6104886004803603602081101561047857600080fd5b5035600160a060020a0316610cb0565b60408051921515835260208301919091528051918290030190f35b6101af600480360360608110156104b957600080fd5b600160a060020a0382351691908101906040810160208201356401000000008111156104e457600080fd5b8201836020820111156104f657600080fd5b8035906020019184600183028401116401000000008311171561051857600080fd5b91908080601f01602080910402602001604051908101604052809392919081815260200183838082843760009201919091525092955050509035600160a060020a03169150610ccf9050565b6102bc610dd3565b6102bc610de7565b6101af610df6565b610211610e10565b6103db6004803603602081101561059a57600080fd5b5035600160a060020a0316610e9e565b6102bc600480360360208110156105c057600080fd5b5035610ebf565b610450600480360360208110156105dd57600080fd5b5035600160a060020a0316610ecd565b60048054604080517f9a43aa98000000000000000000000000000000000000000000000000000000008152600160a060020a03808716948201949094529051859390921691639a43aa9891602480820192602092909190829003018186803b15801561065857600080fd5b505afa15801561066c573d6000803e3d6000fd5b505050506040513d602081101561068257600080fd5b505115156106da576040805160e560020a62461bcd02815260206004820152601760248201527f43616c6c6572206973206e6f7420616e2061646d696e21000000000000000000604482015290519081900360640190fd5b6106e384610a38565b156107225760405160e560020a62461bcd0281526004018080602001828103825260348152602001806111816034913960400191505060405180910390fd5b5060408051808201825260018082526020808301948552600160a060020a0396909616600081815260099097529286209151825460ff1916901515178255925190830155600a805492830181559093527fc65a7bb8d6351c1cf70c95a316cc6a92839c986682d98bc35f958f4883f9d2a801805473ffffffffffffffffffffffffffffffffffffffff191690921790915550565b6060600a80548060200260200160405190810160405280929190818152602001828054801561080e57602002820191906000526020600020905b8154600160a060020a031681526001909101906020018083116107f0575b505050505090505b90565b60058054604080516020601f600260001961010060018816150201909516949094049384018190048102820181019092528281526060939092909183018282801561080e5780601f1061087a5761010080835404028352916020019161080e565b820191906000526020600020905b81548152906001019060200180831161088857509395945050505050565b600280546001919060ff191682805b0217905550565b600160a060020a03811660009081526007602090815260409182902080548351601f600260001961010060018616150201909316929092049182018490048402810184019094528084526060939283018282801561095b5780601f106109305761010080835404028352916020019161095b565b820191906000526020600020905b81548152906001019060200180831161093e57829003601f168201915b50505050509050919050565b600654600160a060020a031681565b600454600160a060020a031681565b60025460ff1681565b60076020908152600091825260409182902080548351601f60026000196101006001861615020190931692909204918201849004840281018401909452808452909291839190830182828015610a255780601f106109fa57610100808354040283529160200191610a25565b820191906000526020600020905b815481529060010190602001808311610a0857829003601f168201915b5050506001909301549192505060ff1682565b600160a060020a031660009081526009602052604090205460ff1690565b6008805482908110610a6457fe5b600091825260209091200154600160a060020a0316905081565b33610a8881610a38565b1515610ade576040805160e560020a62461bcd02815260206004820152601a60248201527f566f74657220616464726573732069736e27742073746f726564000000000000604482015290519081900360640190fd5b610ae6610c2c565b1515610b265760405160e560020a62461bcd02815260040180806020018281038252602581526020018061115c6025913960400191505060405180910390fd5b600254604080517fefa5d431000000000000000000000000000000000000000000000000000000008152336004820152600160a060020a0386811660248301526044820186905291516101009093049091169163efa5d4319160648082019260009290919082900301818387803b158015610ba057600080fd5b505af1158015610bb4573d6000803e3d6000fd5b50505050505050565b600654600160a060020a031690565b6060600880548060200260200160405190810160405280929190818152602001828054801561080e57602002820191906000526020600020908154600160a060020a031681526001909101906020018083116107f0575050505050905090565b6002546040805160e060020a6370a0823102815233600482015290516000926101009004600160a060020a0316916370a08231916024808301926020929190829003018186803b158015610c7f57600080fd5b505afa158015610c93573d6000803e3d6000fd5b505050506040513d6020811015610ca957600080fd5b5051905090565b6009602052600090815260409020805460019091015460ff9091169082565b610cd881610e9e565b15610d175760405160e560020a62461bcd0281526004018080602001828103825260348152602001806111816034913960400191505060405180910390fd5b6040805180820182528381526001602080830191909152600160a060020a038416600090815260078252929092208151805192939192610d5a92849201906110c3565b50602091909101516001918201805460ff19169115159190911790556008805491820181556000527ff3f7a9fe364faab93b216da50a3214154f22a0a2b415b23a84c8169e8b636ee301805473ffffffffffffffffffffffffffffffffffffffff1916600160a060020a03929092169190911790555050565b6002546101009004600160a060020a031681565b600354600160a060020a031681565b610dfe610f57565b60028054819060ff19166001826108b5565b6005805460408051602060026001851615610100026000190190941693909304601f81018490048402820184019092528181529291830182828015610e965780601f10610e6b57610100808354040283529160200191610e96565b820191906000526020600020905b815481529060010190602001808311610e7957829003601f168201915b505050505081565b600160a060020a031660009081526007602052604090206001015460ff1690565b600a805482908110610a6457fe5b6002546040805160e060020a6370a08231028152600160a060020a03848116600483015291516000936101009004909216916370a0823191602480820192602092909190829003018186803b158015610f2557600080fd5b505afa158015610f39573d6000803e3d6000fd5b505050506040513d6020811015610f4f57600080fd5b505192915050565b600080805b6008548110156110be576008805482908110610f7457fe5b600091825260209182902001546002546040805160e060020a6370a08231028152600160a060020a03938416600482018190529151919650610100909204909216926370a0823192602480840193829003018186803b158015610fd657600080fd5b505afa158015610fea573d6000803e3d6000fd5b505050506040513d602081101561100057600080fd5b50518310156110b6576002546040805160e060020a6370a08231028152600160a060020a0385811660048301529151610100909304909116916370a0823191602480820192602092909190829003018186803b15801561105f57600080fd5b505afa158015611073573d6000803e3d6000fd5b505050506040513d602081101561108957600080fd5b50516006805473ffffffffffffffffffffffffffffffffffffffff1916600160a060020a03851617905592505b600101610f5c565b505050565b828054600181600116156101000203166002900490600052602060002090601f016020900481019282601f1061110457805160ff1916838001178555611131565b82800160010185558215611131579182015b82811115611131578251825591602001919060010190611116565b5061113d929150611141565b5090565b61081691905b8082111561113d576000815560010161114756fe566f74657220646f65736e2774206861766520616e7920566f74696e6720546f6b656e7321546869732063616e6469646174654164647265737320616464726573732068617320616c7265616479206265656e206164646564a165627a7a723058205645395343c4bab6f44df6d1ed0d8d06ab6b87e3b74ddf4040d3309d5596d28d0029",
  "source": "pragma solidity ^0.5.3;\n\nimport \"./Institution.sol\";\nimport \"./VotingTokenAuthorisation.sol\";\n\n\ncontract Election {\n\n\n    \n    // A pending Election will be when an Election admin has configured the Election to run\n    // at some point in the future. This allows the contract to be deployed at the time\n    // of admin interaction, but to start at a pre-defined time.\n    enum ElectionStatus { CANDIDATES_APPROVAL, IN_PROGRESS, CONCLUDED }\n\n    uint _openingTime;\n    uint _closingTime;\n    ElectionStatus public _electionStatus;\n    VotingToken public _votingToken;\n    VotingTokenAuthorisation public _votingTokenAuthorisation; // The address of the VotingTokenSale contract for this election\n    Institution public _institution;\n    string public _description;\n    address public _victor;\n\n    struct Candidate {\n        string name;\n        // Allow the candidates mapping to be easily queried for admins that exist.\n        bool isInitialised;\n    }\n\n    struct Voter {\n        bool isInitialised;\n        uint votingTokenBalance;\n    }\n\n    // Store Candidate addresses so they can be accessed without iteration. This\n    // limits gas costs. This also means that we can efficiently keep track of whether\n    // or not an address is stored, because the Struct that is mapped to the address contains\n    // the flag isInitialised that can evaulated to see if an address exists.\n    mapping(address => Candidate) public _candidateMapping;\n    // Store candidate addresses in array for quick acceess and to reveal more information\n    // about contract state, such as bow many candidate there are.\n\n    address[] public _candidateArray;\n\n    // Saving gas cost and using a simple counter as opposed to an array which isn't required for small amount of candidates\n   // uint _candidateCounter;\n\n    mapping(address => Voter) public _voterMapping;\n\n    address[] public _voterAddressArray;\n\n\n    constructor (address institution, VotingTokenAuthorisation votingTokenAuthorisation,\n    VotingToken votingToken, string memory description, uint openingTime, uint closingTime)\n    public {\n        _votingTokenAuthorisation = votingTokenAuthorisation;\n        _institution = Institution(institution);\n        _votingToken = votingToken;\n        _electionStatus = ElectionStatus.CANDIDATES_APPROVAL;\n        _description = description;\n        _openingTime = openingTime;\n        _closingTime = closingTime;\n    }\n\n    // TODO add isAdmin modifier for code document\n    function beginElection() public {\n        _electionStatus = ElectionStatus.IN_PROGRESS;\n    }\n\n    // TODO add isAdmin modifier for code document\n    function concludeElection() public  {\n   //     require(now > _closingTime, \"The election is still within the set time\");\n   //     require(_institution.isAdminStored(msg.sender), \"Caller is not an admin!\");\n        determineVictor();\n        _electionStatus = ElectionStatus.CONCLUDED;\n\n    }\n\n    function determineVictor() internal {\n        uint256 tokenCounter = 0;\n        address candAddress;\n        for (uint i = 0; i < _candidateArray.length; i++ ) {\n            candAddress = _candidateArray[i];\n            if (tokenCounter < _votingToken.balanceOf(candAddress)) {\n                tokenCounter = _votingToken.balanceOf(candAddress);\n                _victor = candAddress;\n            }\n        }\n    }\n \n    modifier isAdmin(address admin) {\n        // Make sure caller is an Institution admin\n        require(_institution.isAdminStored(admin), \"Caller is not an admin!\");\n        _;\n    }\n\n    ///////////VOTING///////////\n\n    function vote(address candidate,  uint weight) public ableToVote(msg.sender) {\n        _votingToken.vote(msg.sender, candidate, weight);\n    }\n\n    ///////////CANDIDATE DATA OPERATIONS///////////\n\n    function addNewCandidate(address admin, string memory candidateName, address candidateAddress)\n    public  { // TODO ADD THIS BACK FOR CODE SUB isAdmin(admin)\n\n        // Check for duplicate candidate address\n        require(!isCandidateAddressStored(candidateAddress),\"This candidateAddress address has already been added\");\n        // Add candidate to mapping for non-iterable access.\n        _candidateMapping[candidateAddress] = Candidate(candidateName, true);\n        // Keep track of total candidates for later usage, especially when tallying votes.\n        _candidateArray.push(candidateAddress);\n    }\n\n    function isCandidateAddressStored(address candidate) public view returns(bool) {\n        return _candidateMapping[candidate].isInitialised;\n    }\n\n    ///////////VOTER DATA OPERATIONS///////////\n\n    function addNewVoter(address voter, address admin, uint tokenAmount)\n    public isAdmin(admin) {\n        // Check for duplicate voter address\n        require(!isVoterAddressStored(voter),\"This candidateAddress address has already been added\");\n        // Add voter to mapping for non-iterable access.\n        _voterMapping[voter] = Voter(true, tokenAmount);\n         // Add address of newly created voter to dynamically sized array for quick access.\n        _voterAddressArray.push(voter);\n    }\n\n    modifier ableToVote(address voter) {\n        require(isVoterAddressStored(voter), \"Voter address isn't stored\");\n        require(getTokenBalance() != 0, \"Voter doesn't have any Voting Tokens!\");\n        _;\n    }\n\n    function isVoterAddressStored(address voter) public view returns(bool) {\n        return _voterMapping[voter].isInitialised;\n    }\n\n    function getCandidateTokenBalance(address candidate) public view returns(uint) {\n   //     return _voterMapping[voter].votingTokenBalance;\n        return _votingToken.balanceOf(candidate);\n    }\n\n    function getTokenBalance() public view returns(uint) {\n   //     return _voterMapping[voter].votingTokenBalance;\n        return _votingToken.balanceOf(msg.sender);\n    }\n\n    function getVoterAddresses() public view returns(address[] memory) {\n        return _voterAddressArray;\n    }\n\n    function getCandidateName(address candidate) public view returns(string memory) {\n        return _candidateMapping[candidate].name;\n    }\n\n    function getCandidateAddresses() public view returns(address[] memory) {\n        return _candidateArray;\n    }\n\n    function getDescription() public view returns(string memory) {\n        return _description;\n    }\n\n    function getVictor() public view returns(address) {\n        return _victor;\n    }\n\n}",
  "sourcePath": "/Users/erdi/git/final-year-project/dapp-backend/contracts/Election.sol",
  "compiler": {
    "name": "solc",
    "version": "0.5.3+commit.10d17f24.Emscripten.clang"
  },
  "schemaVersion": "3.0.11",
  "updatedAt": "2019-07-27T18:14:47.732Z",
  "devdoc": {
    "methods": {}
  },
  "userdoc": {
    "methods": {
      "addNewCandidate(address,string,address)": {
        "notice": "////////CANDIDATE DATA OPERATIONS///////////"
      },
      "addNewVoter(address,address,uint256)": {
        "notice": "////////VOTER DATA OPERATIONS///////////"
      },
      "vote(address,uint256)": {
        "notice": "////////VOTING///////////"
      }
    }
  }
}