{
  "contractName": "Institution",
  "abi": [
    {
      "constant": true,
      "inputs": [
        {
          "name": "",
          "type": "uint256"
        }
      ],
      "name": "_electionAddresses",
      "outputs": [
        {
          "name": "",
          "type": "address"
        }
      ],
      "payable": false,
      "stateMutability": "view",
      "type": "function"
    },
    {
      "constant": true,
      "inputs": [
        {
          "name": "submittingAddress",
          "type": "address"
        }
      ],
      "name": "approveRequest",
      "outputs": [],
      "payable": false,
      "stateMutability": "view",
      "type": "function"
    },
    {
      "constant": true,
      "inputs": [
        {
          "name": "submittingAddress",
          "type": "address"
        }
      ],
      "name": "isApprovalStored",
      "outputs": [
        {
          "name": "isStored",
          "type": "bool"
        }
      ],
      "payable": false,
      "stateMutability": "view",
      "type": "function"
    },
    {
      "constant": true,
      "inputs": [],
      "name": "_tokenAuthorisation",
      "outputs": [
        {
          "name": "",
          "type": "address"
        }
      ],
      "payable": false,
      "stateMutability": "view",
      "type": "function"
    },
    {
      "constant": false,
      "inputs": [],
      "name": "kill",
      "outputs": [],
      "payable": false,
      "stateMutability": "nonpayable",
      "type": "function"
    },
    {
      "constant": true,
      "inputs": [
        {
          "name": "",
          "type": "uint256"
        }
      ],
      "name": "_approvalRequestArray",
      "outputs": [
        {
          "name": "",
          "type": "address"
        }
      ],
      "payable": false,
      "stateMutability": "view",
      "type": "function"
    },
    {
      "constant": true,
      "inputs": [],
      "name": "getApprovalRequestAddresses",
      "outputs": [
        {
          "name": "",
          "type": "address[]"
        }
      ],
      "payable": false,
      "stateMutability": "view",
      "type": "function"
    },
    {
      "constant": true,
      "inputs": [],
      "name": "_deployedVotingToken",
      "outputs": [
        {
          "name": "",
          "type": "address"
        }
      ],
      "payable": false,
      "stateMutability": "view",
      "type": "function"
    },
    {
      "constant": true,
      "inputs": [],
      "name": "_institutionName",
      "outputs": [
        {
          "name": "",
          "type": "string"
        }
      ],
      "payable": false,
      "stateMutability": "view",
      "type": "function"
    },
    {
      "constant": true,
      "inputs": [
        {
          "name": "",
          "type": "address"
        }
      ],
      "name": "_electionAddressMapping",
      "outputs": [
        {
          "name": "isAddress",
          "type": "bool"
        }
      ],
      "payable": false,
      "stateMutability": "view",
      "type": "function"
    },
    {
      "constant": true,
      "inputs": [
        {
          "name": "x",
          "type": "bytes32"
        }
      ],
      "name": "bytes32ToString",
      "outputs": [
        {
          "name": "",
          "type": "string"
        }
      ],
      "payable": false,
      "stateMutability": "pure",
      "type": "function"
    },
    {
      "constant": true,
      "inputs": [
        {
          "name": "",
          "type": "address"
        }
      ],
      "name": "_voterRequests",
      "outputs": [
        {
          "name": "isPending",
          "type": "bool"
        },
        {
          "name": "isAuthorised",
          "type": "bool"
        },
        {
          "name": "isInitialised",
          "type": "bool"
        }
      ],
      "payable": false,
      "stateMutability": "view",
      "type": "function"
    },
    {
      "constant": true,
      "inputs": [
        {
          "name": "",
          "type": "uint256"
        }
      ],
      "name": "_adminAddresses",
      "outputs": [
        {
          "name": "",
          "type": "address"
        }
      ],
      "payable": false,
      "stateMutability": "view",
      "type": "function"
    },
    {
      "constant": true,
      "inputs": [
        {
          "name": "",
          "type": "address"
        }
      ],
      "name": "_institutionAdmins",
      "outputs": [
        {
          "name": "name",
          "type": "string"
        },
        {
          "name": "isAuthorised",
          "type": "bool"
        },
        {
          "name": "isInitialised",
          "type": "bool"
        }
      ],
      "payable": false,
      "stateMutability": "view",
      "type": "function"
    },
    {
      "constant": true,
      "inputs": [
        {
          "name": "submittingAddress",
          "type": "address"
        }
      ],
      "name": "getRequestData",
      "outputs": [
        {
          "name": "",
          "type": "bytes32[]"
        }
      ],
      "payable": false,
      "stateMutability": "view",
      "type": "function"
    },
    {
      "constant": false,
      "inputs": [
        {
          "name": "approvalRequestType",
          "type": "string"
        },
        {
          "name": "requestData",
          "type": "bytes32[]"
        }
      ],
      "name": "submitApprovalRequest",
      "outputs": [],
      "payable": false,
      "stateMutability": "nonpayable",
      "type": "function"
    },
    {
      "inputs": [
        {
          "name": "institutionName",
          "type": "string"
        },
        {
          "name": "adminName",
          "type": "string"
        },
        {
          "name": "adminAddress",
          "type": "address"
        },
        {
          "name": "deployedVotingToken",
          "type": "address"
        }
      ],
      "payable": false,
      "stateMutability": "nonpayable",
      "type": "constructor"
    },
    {
      "anonymous": false,
      "inputs": [
        {
          "indexed": false,
          "name": "newAdmin",
          "type": "address"
        }
      ],
      "name": "LogNewAdmin",
      "type": "event"
    },
    {
      "anonymous": false,
      "inputs": [
        {
          "indexed": false,
          "name": "election",
          "type": "address"
        }
      ],
      "name": "LogNewElection",
      "type": "event"
    },
    {
      "anonymous": false,
      "inputs": [
        {
          "indexed": false,
          "name": "admin",
          "type": "address"
        }
      ],
      "name": "NewAdminApproved",
      "type": "event"
    },
    {
      "anonymous": false,
      "inputs": [
        {
          "indexed": false,
          "name": "election",
          "type": "address"
        }
      ],
      "name": "NewElectionCreated",
      "type": "event"
    },
    {
      "anonymous": false,
      "inputs": [
        {
          "indexed": false,
          "name": "candidate",
          "type": "address"
        }
      ],
      "name": "NewCandidateApproved",
      "type": "event"
    },
    {
      "anonymous": false,
      "inputs": [
        {
          "indexed": false,
          "name": "voter",
          "type": "address"
        }
      ],
      "name": "NewVoterApproved",
      "type": "event"
    },
    {
      "anonymous": false,
      "inputs": [
        {
          "indexed": false,
          "name": "institution",
          "type": "address"
        }
      ],
      "name": "NewApprovalSubmitted",
      "type": "event"
    },
    {
      "constant": true,
      "inputs": [],
      "name": "getInstitutionName",
      "outputs": [
        {
          "name": "",
          "type": "string"
        }
      ],
      "payable": false,
      "stateMutability": "view",
      "type": "function"
    },
    {
      "constant": false,
      "inputs": [
        {
          "name": "submittingAddress",
          "type": "address"
        }
      ],
      "name": "approveAdminRequest",
      "outputs": [],
      "payable": false,
      "stateMutability": "nonpayable",
      "type": "function"
    },
    {
      "constant": false,
      "inputs": [
        {
          "name": "requestData",
          "type": "bytes32[]"
        }
      ],
      "name": "submitAdminApprovalRequest",
      "outputs": [],
      "payable": false,
      "stateMutability": "nonpayable",
      "type": "function"
    },
    {
      "constant": false,
      "inputs": [
        {
          "name": "adminName",
          "type": "string"
        },
        {
          "name": "adminAddress",
          "type": "address"
        }
      ],
      "name": "addNewAdmin",
      "outputs": [],
      "payable": false,
      "stateMutability": "nonpayable",
      "type": "function"
    },
    {
      "constant": false,
      "inputs": [
        {
          "name": "admin",
          "type": "address"
        }
      ],
      "name": "unauthoriseAdmin",
      "outputs": [],
      "payable": false,
      "stateMutability": "nonpayable",
      "type": "function"
    },
    {
      "constant": true,
      "inputs": [
        {
          "name": "storedAdmin",
          "type": "address"
        }
      ],
      "name": "getAdmin",
      "outputs": [
        {
          "name": "",
          "type": "string"
        },
        {
          "name": "",
          "type": "bool"
        }
      ],
      "payable": false,
      "stateMutability": "view",
      "type": "function"
    },
    {
      "constant": true,
      "inputs": [
        {
          "name": "admin",
          "type": "address"
        }
      ],
      "name": "isAdminStored",
      "outputs": [
        {
          "name": "isStored",
          "type": "bool"
        }
      ],
      "payable": false,
      "stateMutability": "view",
      "type": "function"
    },
    {
      "constant": true,
      "inputs": [
        {
          "name": "admin",
          "type": "address"
        }
      ],
      "name": "isAdminAuthorised",
      "outputs": [
        {
          "name": "isStored",
          "type": "bool"
        }
      ],
      "payable": false,
      "stateMutability": "view",
      "type": "function"
    },
    {
      "constant": false,
      "inputs": [
        {
          "name": "openingTime",
          "type": "uint256"
        },
        {
          "name": "closingTime",
          "type": "uint256"
        },
        {
          "name": "description",
          "type": "string"
        }
      ],
      "name": "createElection",
      "outputs": [],
      "payable": false,
      "stateMutability": "nonpayable",
      "type": "function"
    },
    {
      "constant": false,
      "inputs": [
        {
          "name": "election",
          "type": "address"
        },
        {
          "name": "admin",
          "type": "address"
        }
      ],
      "name": "storeNewElection",
      "outputs": [],
      "payable": false,
      "stateMutability": "nonpayable",
      "type": "function"
    },
    {
      "constant": true,
      "inputs": [
        {
          "name": "election",
          "type": "address"
        }
      ],
      "name": "isElectionAddressStored",
      "outputs": [
        {
          "name": "",
          "type": "bool"
        }
      ],
      "payable": false,
      "stateMutability": "view",
      "type": "function"
    },
    {
      "constant": false,
      "inputs": [
        {
          "name": "submittingAddress",
          "type": "address"
        }
      ],
      "name": "approveCandidateRequest",
      "outputs": [],
      "payable": false,
      "stateMutability": "nonpayable",
      "type": "function"
    },
    {
      "constant": false,
      "inputs": [
        {
          "name": "requestData",
          "type": "bytes32[]"
        },
        {
          "name": "electionAddress",
          "type": "address"
        }
      ],
      "name": "submitCandidateApprovalRequest",
      "outputs": [],
      "payable": false,
      "stateMutability": "nonpayable",
      "type": "function"
    },
    {
      "constant": false,
      "inputs": [
        {
          "name": "submittingAddress",
          "type": "address"
        },
        {
          "name": "amount",
          "type": "uint256"
        }
      ],
      "name": "approveVoterRequest",
      "outputs": [],
      "payable": false,
      "stateMutability": "nonpayable",
      "type": "function"
    },
    {
      "constant": false,
      "inputs": [
        {
          "name": "electionAddress",
          "type": "address"
        }
      ],
      "name": "submitVoterApprovalRequest",
      "outputs": [],
      "payable": false,
      "stateMutability": "nonpayable",
      "type": "function"
    },
    {
      "constant": true,
      "inputs": [],
      "name": "getAdminAddressArray",
      "outputs": [
        {
          "name": "",
          "type": "address[]"
        }
      ],
      "payable": false,
      "stateMutability": "view",
      "type": "function"
    },
    {
      "constant": false,
      "inputs": [
        {
          "name": "votingToken",
          "type": "address"
        }
      ],
      "name": "setVotingTokenAddress",
      "outputs": [],
      "payable": false,
      "stateMutability": "nonpayable",
      "type": "function"
    },
    {
      "constant": true,
      "inputs": [],
      "name": "getVotingTokenAddress",
      "outputs": [
        {
          "name": "",
          "type": "address"
        }
      ],
      "payable": false,
      "stateMutability": "view",
      "type": "function"
    }
  ],
  "bytecode": "0x60806040523480156200001157600080fd5b50604051620049b5380380620049b5833981018060405260808110156200003757600080fd5b8101908080516401000000008111156200005057600080fd5b820160208101848111156200006457600080fd5b81516401000000008111828201871017156200007f57600080fd5b505092919060200180516401000000008111156200009c57600080fd5b82016020810184811115620000b057600080fd5b8151640100000000811182820187101715620000cb57600080fd5b50506020808301516040909301518651929550929350620000f29160029187019062000267565b50620001078264010000000062000241810204565b156200015f576040517f08c379a00000000000000000000000000000000000000000000000000000000081526004018080602001828103825260298152602001806200498c6029913960400191505060405180910390fd5b604080516060810182528481526001602080830182905282840191909152600160a060020a038516600090815260068252929092208151805192939192620001ab928492019062000267565b5060208201516001918201805460409094015115156101000261ff001992151560ff199095169490941791909116929092179091556008805491820181556000527ff3f7a9fe364faab93b216da50a3214154f22a0a2b415b23a84c8169e8b636ee3018054600160a060020a03938416600160a060020a03199182161790915560048054929093169116179055506200030c9050565b600160a060020a0316600090815260066020526040902060010154610100900460ff1690565b828054600181600116156101000203166002900490600052602060002090601f016020900481019282601f10620002aa57805160ff1916838001178555620002da565b82800160010185558215620002da579182015b82811115620002da578251825591602001919060010190620002bd565b50620002e8929150620002ec565b5090565b6200030991905b80821115620002e85760008155600101620002f3565b90565b614670806200031c6000396000f3fe60806040523480156200001157600080fd5b506004361062000254576000357c01000000000000000000000000000000000000000000000000000000009004806381dca05d1162000152578063c214e5e511620000da578063e2c79b0b11620000a4578063e2c79b0b1462000a47578063e73db9e41462000a70578063e79e55b11462000a99578063ebc87d0f1462000ac2578063ff2fa5c01462000af15762000254565b8063c214e5e51462000884578063c30b9ab9146200093b578063d44f259814620009f5578063db80ec931462000a1e5762000254565b8063a75881e1116200011c578063a75881e11462000757578063ae23c07d1462000761578063bbaf053f14620007ac578063be7ddea614620008645762000254565b806381dca05d14620006db57806387f473ba14620006e55780639201de55146200070e5780639a43aa98146200072e5762000254565b80635092b02a11620001e257806367db427911620001ac57806367db4279146200057c57806370856b2314620006255780637d05ce6814620006a75780637dbe8b7014620006c75780637e25682014620006d15762000254565b80635092b02a14620003c7578063580a8214146200047b5780635848693f14620004a457806364efb22b14620004cd5762000254565b80632459639c11620002245780632459639c146200030757806341c0e1b5146200033057806342110a82146200033a5780634301a3a8146200036b5762000254565b80626e16541462000259578063061dff9a146200029557806306a0337914620002c0578063219e156e14620002fd575b600080fd5b62000279600480360360208110156200027157600080fd5b503562000c24565b60408051600160a060020a039092168252519081900360200190f35b620002be60048036036020811015620002ad57600080fd5b5035600160a060020a031662000c4d565b005b620002e960048036036020811015620002d857600080fd5b5035600160a060020a031662000cb2565b604080519115158252519081900360200190f35b6200027962000cd7565b620002be600480360360208110156200031f57600080fd5b5035600160a060020a031662000ce6565b620002be62000eed565b620002be600480360360408110156200035257600080fd5b50600160a060020a038135811691602001351662000ef0565b620003756200105a565b60408051602080825283518183015283519192839290830191858101910280838360005b83811015620003b357818101518382015260200162000399565b505050509050019250505060405180910390f35b620002be60048036036040811015620003df57600080fd5b810190602081018135640100000000811115620003fb57600080fd5b8201836020820111156200040e57600080fd5b803590602001918460208302840111640100000000831117156200043157600080fd5b91908080602002602001604051908101604052809392919081815260200183836020028082843760009201919091525092955050509035600160a060020a03169150620010bf9050565b620002e9600480360360208110156200049357600080fd5b5035600160a060020a03166200129b565b620002be60048036036020811015620004bc57600080fd5b5035600160a060020a0316620012b9565b620004f660048036036020811015620004e557600080fd5b5035600160a060020a0316620012db565b604051808060200183151515158152602001828103825284818151815260200191508051906020019080838360005b838110156200053f57818101518382015260200162000525565b50505050905090810190601f1680156200056d5780820380516001836020036101000a031916815260200191505b50935050505060405180910390f35b620002be600480360360208110156200059457600080fd5b810190602081018135640100000000811115620005b057600080fd5b820183602082011115620005c357600080fd5b80359060200191846020830284011164010000000083111715620005e657600080fd5b919080806020026020016040519081016040528093929190818152602001838360200280828437600092019190915250929550620013b3945050505050565b6200062f620013f4565b6040805160208082528351818301528351919283929083019185019080838360005b838110156200066b57818101518382015260200162000651565b50505050905090810190601f168015620006995780820380516001836020036101000a031916815260200191505b509250505060405180910390f35b6200027960048036036020811015620006bf57600080fd5b503562001482565b6200037562001491565b62000279620014f3565b6200062f62001502565b620002e960048036036020811015620006fd57600080fd5b5035600160a060020a031662001591565b6200062f600480360360208110156200072657600080fd5b5035620015a6565b620002e9600480360360208110156200074657600080fd5b5035600160a060020a031662001744565b620002796200176a565b6200078a600480360360208110156200077957600080fd5b5035600160a060020a031662001779565b6040805193151584529115156020840152151582820152519081900360600190f35b620002be60048036036060811015620007c457600080fd5b813591602081013591810190606081016040820135640100000000811115620007ec57600080fd5b820183602082011115620007ff57600080fd5b803590602001918460018302840111640100000000831117156200082257600080fd5b91908080601f016020809104026020016040519081016040528093929190818152602001838380828437600092019190915250929550620017a1945050505050565b62000279600480360360208110156200087c57600080fd5b503562001aba565b620002be600480360360408110156200089c57600080fd5b810190602081018135640100000000811115620008b857600080fd5b820183602082011115620008cb57600080fd5b80359060200191846001830284011164010000000083111715620008ee57600080fd5b91908080601f01602080910402602001604051908101604052809392919081815260200183838082843760009201919091525092955050509035600160a060020a0316915062001ac99050565b62000964600480360360208110156200095357600080fd5b5035600160a060020a031662001c89565b60405180806020018415151515815260200183151515158152602001828103825285818151815260200191508051906020019080838360005b83811015620009b75781810151838201526020016200099d565b50505050905090810190601f168015620009e55780820380516001836020036101000a031916815260200191505b5094505050505060405180910390f35b620002e96004803603602081101562000a0d57600080fd5b5035600160a060020a031662001d40565b620003756004803603602081101562000a3657600080fd5b5035600160a060020a031662001d61565b620002be6004803603602081101562000a5f57600080fd5b5035600160a060020a031662001de2565b620002be6004803603602081101562000a8857600080fd5b5035600160a060020a031662001eca565b620002be6004803603602081101562000ab157600080fd5b5035600160a060020a031662001f76565b620002be6004803603604081101562000ada57600080fd5b50600160a060020a0381351690602001356200211c565b620002be6004803603604081101562000b0957600080fd5b81019060208101813564010000000081111562000b2557600080fd5b82018360208201111562000b3857600080fd5b8035906020019184600183028401116401000000008311171562000b5b57600080fd5b91908080601f016020809104026020016040519081016040528093929190818152602001838380828437600092019190915250929594936020810193503591505064010000000081111562000baf57600080fd5b82018360208201111562000bc257600080fd5b8035906020019184602083028401116401000000008311171562000be557600080fd5b91908080602002602001604051908101604052809392919081815260200183836020028082843760009201919091525092955062002309945050505050565b600980548290811062000c3357fe5b600091825260209091200154600160a060020a0316905081565b62000c588162000cb2565b151562000caf576040805160e560020a62461bcd02815260206004820152601260248201527f417070726f76616c206e6f7420666f756e640000000000000000000000000000604482015290519081900360640190fd5b50565b600160a060020a03811660009081526020819052604090206003015460ff165b919050565b600354600160a060020a031681565b3360009081526020819052604090205460a060020a900460ff161562000d415760405160e560020a62461bcd028152600401808060200182810382526045815260200180620045d76045913960600191505060405180910390fd5b62000d4c3362000cb2565b1562000d8d5760405160e560020a62461bcd028152600401808060200182810382526029815260200180620045516029913960400191505060405180910390fd5b62000d976200252e565b3380825260016020808401828152604080518082018252601481527f766f746572417070726f76616c5265717565737400000000000000000000000081850152818701908152600160a060020a0388811660a089015260808801869052600096875286855291909520865181549351151560a060020a0260a060020a60ff021991909316600160a060020a031990941693909317929092161781559251805185949362000e4a9390850192019062002565565b506060820151805162000e68916002840191602090910190620025ea565b5060808201516003909101805460a090930151600160a060020a03166101000274ffffffffffffffffffffffffffffffffffffffff001992151560ff1990941693909317919091169190911790556040805133815290517f62db2a37c394b9a845cfefd9624c1c41185d89a3ea9790c7ccde238ecdc6302f9181900360200190a15050565b33ff5b8062000efc8162001744565b151562000f42576040805160e560020a62461bcd028152602060048201526017602482015260008051602062004531833981519152604482015290519081900360640190fd5b8162000f4e8162001d40565b151562000f905760405160e560020a62461bcd028152600401808060200182810382526031815260200180620045a66031913960400191505060405180910390fd5b62000f9b846200129b565b1562000fdc5760405160e560020a62461bcd02815260040180806020018281038252602c8152602001806200457a602c913960400191505060405180910390fd5b505060408051602080820183526001808352600160a060020a0395909516600081815260059092529281209151825460ff19169015151790915560098054948501815590527f6e1540171b6c0c960b71a7020d9f60077f6af931a8bbf590da0223dacf75c7af9092018054600160a060020a03191690921790915550565b60606008805480602002602001604051908101604052809291908181526020018280548015620010b457602002820191906000526020600020905b8154600160a060020a0316815260019091019060200180831162001095575b505050505090505b90565b3360009081526020819052604090205460a060020a900460ff16156200111a5760405160e560020a62461bcd028152600401808060200182810382526045815260200180620045d76045913960600191505060405180910390fd5b620011253362000cb2565b15620011665760405160e560020a62461bcd028152600401808060200182810382526029815260200180620045516029913960400191505060405180910390fd5b620011706200252e565b3380825260016020808401828152604080518082018252601881527f63616e646964617465417070726f76616c5265717565737400000000000000008185015281870190815260608701899052600160a060020a0388811660a089015260808801869052600096875286855291909520865181549351151560a060020a0260a060020a60ff021991909316600160a060020a03199094169390931792909216178155925180518594936200122a9390850192019062002565565b506060820151805162001248916002840191602090910190620025ea565b5060808201516003909101805460a090930151600160a060020a03166101000274ffffffffffffffffffffffffffffffffffffffff001992151560ff199094169390931791909116919091179055505050565b600160a060020a031660009081526005602052604090205460ff1690565b60048054600160a060020a031916600160a060020a0392909216919091179055565b60606000620012ea8362001744565b15620013ae57600160a060020a03831660009081526006602090815260409182902060018082015482548551600261010094831615949094026000190190911692909204601f8101859004850283018501909552848252919360ff9092169290918491830182828015620013a25780601f106200137657610100808354040283529160200191620013a2565b820191906000526020600020905b8154815290600101906020018083116200138457829003601f168201915b50505050509150915091505b915091565b62000caf6040805190810160405280601481526020017f61646d696e417070726f76616c526571756573740000000000000000000000008152508262002309565b60028054604080516020601f6000196101006001871615020190941685900493840181900481028201810190925282815260609390929091830182828015620010b45780601f106200145557610100808354040283529160200191620010b4565b820191906000526020600020905b8154815290600101906020018083116200146357509395945050505050565b600180548290811062000c3357fe5b60606001805480602002602001604051908101604052809291908181526020018280548015620010b457602002820191906000526020600020908154600160a060020a0316815260019091019060200180831162001095575050505050905090565b600454600160a060020a031681565b6002805460408051602060018416156101000260001901909316849004601f81018490048402820184019092528181529291830182828015620015895780601f106200155d5761010080835404028352916020019162001589565b820191906000526020600020905b8154815290600101906020018083116200156b57829003601f168201915b505050505081565b60056020526000908152604090205460ff1681565b6040805160208082528183019092526060918291906020820181803883390190505090506000805b60208110156200165b576008810260020a85027fff0000000000000000000000000000000000000000000000000000000000000081161562001651578084848151811015156200161a57fe5b9060200101907effffffffffffffffffffffffffffffffffffffffffffffffffffffffffffff1916908160001a9053506001909201915b50600101620015ce565b506060816040519080825280601f01601f1916602001820160405280156200168a576020820181803883390190505b50905060005b828110156200173b578381815181101515620016a857fe5b9060200101517f010000000000000000000000000000000000000000000000000000000000000090047f01000000000000000000000000000000000000000000000000000000000000000282828151811015156200170257fe5b9060200101907effffffffffffffffffffffffffffffffffffffffffffffffffffffffffffff1916908160001a90535060010162001690565b50949350505050565b600160a060020a0316600090815260066020526040902060010154610100900460ff1690565b600454600160a060020a031690565b60076020526000908152604090205460ff808216916101008104821691620100009091041683565b33620017ad8162001744565b1515620017f3576040805160e560020a62461bcd028152602060048201526017602482015260008051602062004531833981519152604482015290519081900360640190fd5b33620017ff8162001d40565b1515620018415760405160e560020a62461bcd028152600401808060200182810382526031815260200180620045a66031913960400191505060405180910390fd5b30338686600460009054906101000a9004600160a060020a0316604051620018699062002627565b600160a060020a03958616815293851660208501526040808501939093526060840191909152909216608082015290519081900360a001906000f080158015620018b7573d6000803e3d6000fd5b5060038054600160a060020a031916600160a060020a03928316179081905560048054604080517f983b2d5600000000000000000000000000000000000000000000000000000000815293851692840192909252905192169163983b2d569160248082019260009290919082900301818387803b1580156200193857600080fd5b505af11580156200194d573d6000803e3d6000fd5b505060035460045460405160009450309350600160a060020a039283169290911690879042908a90620019809062002635565b8087600160a060020a0316600160a060020a0316815260200186600160a060020a0316600160a060020a0316815260200185600160a060020a0316600160a060020a0316815260200180602001848152602001838152602001828103825285818151815260200191508051906020019080838360005b8381101562001a10578181015183820152602001620019f6565b50505050905090810190601f16801562001a3e5780820380516001836020036101000a031916815260200191505b50975050505050505050604051809103906000f08015801562001a65573d6000803e3d6000fd5b5090508062001a75813362000ef0565b60408051600160a060020a038316815290517f9c066cbf9c141c80563a3a3ee9224db62b0efe7ab2f1b3afc15e1c094e12b5e89181900360200190a150505050505050565b600880548290811062000c3357fe5b3362001ad58162001744565b151562001b1b576040805160e560020a62461bcd028152602060048201526017602482015260008051602062004531833981519152604482015290519081900360640190fd5b3362001b278162001d40565b151562001b695760405160e560020a62461bcd028152600401808060200182810382526031815260200180620045a66031913960400191505060405180910390fd5b62001b748362001744565b1562001bb55760405160e560020a62461bcd0281526004018080602001828103825260298152602001806200461c6029913960400191505060405180910390fd5b604080516060810182528581526001602080830182905282840191909152600160a060020a03861660009081526006825292909220815180519293919262001c01928492019062002565565b5060208201516001918201805460409094015115156101000261ff001992151560ff199095169490941791909116929092179091556008805491820181556000527ff3f7a9fe364faab93b216da50a3214154f22a0a2b415b23a84c8169e8b636ee3018054600160a060020a03909416600160a060020a031990941693909317909255505050565b60066020908152600091825260409182902080548351601f6002600019610100600186161502019093169290920491820184900484028101840190945280845290929183919083018282801562001d245780601f1062001cf85761010080835404028352916020019162001d24565b820191906000526020600020905b81548152906001019060200180831162001d0657829003601f168201915b5050506001909301549192505060ff8082169161010090041683565b600160a060020a031660009081526006602052604090206001015460ff1690565b606062001d6e8262000cb2565b1562000cd257600160a060020a038216600090815260208181526040918290206002018054835181840281018401909452808452909183018282801562001dd557602002820191906000526020600020905b81548152602001906001019080831162001dc0575b5050505050905062000cd2565b62001ded8162001744565b151562001e44576040805160e560020a62461bcd02815260206004820152601860248201527f41646d696e2061646472657373206e6f7420666f756e64210000000000000000604482015290519081900360640190fd5b62001e4f8162001d40565b151562001ea6576040805160e560020a62461bcd02815260206004820152601e60248201527f41646d696e20697320616c726561647920756e617574686f7269736564210000604482015290519081900360640190fd5b600160a060020a03166000908152600660205260409020600101805460ff19169055565b62001ed58162000c4d565b606062001ee28262001d61565b9050606062001f0a82600081518110151562001efa57fe5b90602001906020020151620015a6565b905062001f18818462001ac9565b600160a060020a03831660008181526020818152604091829020805460a060020a60ff0219169055815192835290517f39e7d4b9ba48f55a740a5192809dbc498fa12724c030b37dab126a3f6774c0f39281900390910190a1505050565b62001f818162000c4d565b606062001f8e8262001d61565b9050606062001fa682600081518110151562001efa57fe5b600160a060020a038085166000818152602081815260408083206003015490517f98a60220000000000000000000000000000000000000000000000000000000008152336004820181815260448301969096526060602483019081528851606484015288519899506101009093049096169687966398a602209690958a958d9592949293608490930192908701918190849084905b83811015620020555781810151838201526020016200203b565b50505050905090810190601f168015620020835780820380516001836020036101000a031916815260200191505b50945050505050600060405180830381600087803b158015620020a557600080fd5b505af1158015620020ba573d6000803e3d6000fd5b505050600160a060020a03851660008181526020818152604091829020805460a060020a60ff0219169055815192835290517ff1a128dd92a8510984a1388bab70766187b49a480e7e70a4e9d77e05adc85d629350918290030190a150505050565b33620021288162001744565b15156200216e576040805160e560020a62461bcd028152602060048201526017602482015260008051602062004531833981519152604482015290519081900360640190fd5b620021798362000c4d565b600160a060020a03808416600081815260208190526040808220600390810154905482517fb01e25900000000000000000000000000000000000000000000000000000000081526004810195909552602485018890523360448601529151610100909104851694919091169263b01e259092606480830193919282900301818387803b1580156200220957600080fd5b505af11580156200221e573d6000803e3d6000fd5b5050604080517e9808e6000000000000000000000000000000000000000000000000000000008152600160a060020a0388811660048301523360248301526044820188905291519185169350629808e6925060648082019260009290919082900301818387803b1580156200229257600080fd5b505af1158015620022a7573d6000803e3d6000fd5b505050600160a060020a03851660008181526020818152604091829020805460a060020a60ff0219169055815192835290517f1c5de580841f59402d3b19f05d1c74a2d754db2f2aaff0648316bf86a18669469350918290030190a150505050565b3360008181526020819052604090205460a060020a900460ff1615620023645760405160e560020a62461bcd028152600401808060200182810382526045815260200180620045d76045913960600191505060405180910390fd5b3360008181526020819052604090206003015460ff1615620023bb5760405160e560020a62461bcd028152600401808060200182810382526029815260200180620045516029913960400191505060405180910390fd5b620023c56200252e565b338082526001602080840182815260408086018a8152606087018a90526080870185905260009586528584529420855181549251151560a060020a0260a060020a60ff0219600160a060020a0392909216600160a060020a0319909416939093171691909117815592518051859493620024459390850192019062002565565b506060820151805162002463916002840191602090910190620025ea565b5060808201516003909101805460a090930151600160a060020a03166101000274ffffffffffffffffffffffffffffffffffffffff001992151560ff1990941693909317919091169190911790556001805480820182556000919091527fb10e2d527612073b26eecdfd717e6a320cf44b4afac2b0732d9fcbe2b7fa0cf6018054600160a060020a0319163390811790915560408051918252517f62db2a37c394b9a845cfefd9624c1c41185d89a3ea9790c7ccde238ecdc6302f9181900360200190a15050505050565b6040805160c0810182526000808252602082018190526060928201839052828201929092526080810182905260a081019190915290565b828054600181600116156101000203166002900490600052602060002090601f016020900481019282601f10620025a857805160ff1916838001178555620025d8565b82800160010185558215620025d8579182015b82811115620025d8578251825591602001919060010190620025bb565b50620025e692915062002643565b5090565b828054828255906000526020600020908101928215620025d85791602002820182811115620025d8578251825591602001919060010190620025bb565b610c32806200266183390190565b61129e806200329383390190565b620010bc91905b80821115620025e657600081556001016200264a56fe608060405234801561001057600080fd5b5060405160a080610c32833981018060405260a081101561003057600080fd5b5080516020820151604083015160608401516080909401516001600081905593949293919291839083908684600160a060020a03821615156100bd576040517f08c379a0000000000000000000000000000000000000000000000000000000008152600401808060200182810382526025815260200180610c0d6025913960400191505060405180910390fd5b600160a060020a038116151561011e576040517f08c379a0000000000000000000000000000000000000000000000000000000008152600401808060200182810382526024815260200180610be96024913960400191505060405180910390fd5b60039290925560028054600160a060020a03928316600160a060020a03199182161790915560018054929093169116179055428210156101a9576040517f08c379a0000000000000000000000000000000000000000000000000000000008152600401808060200182810382526033815260200180610b7f6033913960400191505060405180910390fd5b818111610201576040517f08c379a0000000000000000000000000000000000000000000000000000000008152600401808060200182810382526037815260200180610bb26037913960400191505060405180910390fd5b600591909155600655505060078054600160a060020a03909416600160a060020a03199094169390931790925550506109408061023f6000396000f3fe6080604052600436106100ae576000357c010000000000000000000000000000000000000000000000000000000090048063521eb27311610076578063521eb27314610148578063b01e259014610179578063b7a8807c146101bc578063ec8ac4d8146101d1578063fc0c546a146101f7576100ae565b80631515bc2b146100b95780632c4e722e146100e25780634042b66f1461010957806347535d7b1461011e5780634b6753bc14610133575b6100b73361020c565b005b3480156100c557600080fd5b506100ce610313565b604080519115158252519081900360200190f35b3480156100ee57600080fd5b506100f761031b565b60408051918252519081900360200190f35b34801561011557600080fd5b506100f7610321565b34801561012a57600080fd5b506100ce610327565b34801561013f57600080fd5b506100f7610342565b34801561015457600080fd5b5061015d610348565b60408051600160a060020a039092168252519081900360200190f35b34801561018557600080fd5b506100b76004803603606081101561019c57600080fd5b50600160a060020a03813581169160208101359160409091013516610357565b3480156101c857600080fd5b506100f761050e565b6100b7600480360360208110156101e757600080fd5b5035600160a060020a031661020c565b34801561020357600080fd5b5061015d610514565b6000805460010190819055346102228382610523565b600061022d8261058b565b600454909150610243908363ffffffff6105a816565b600455610250848261060c565b60408051838152602081018390528151600160a060020a0387169233927f6faf93231a456e552dbc9961f58d9713ee4f2e69d15f1975b050ef0911053a7b929081900390910190a36102a2848361030f565b6102aa610616565b6102b4848361030f565b5050600054811461030f576040805160e560020a62461bcd02815260206004820152601f60248201527f5265656e7472616e637947756172643a207265656e7472616e742063616c6c00604482015290519081900360640190fd5b5050565b600654421190565b60035490565b60045490565b6000600554421015801561033d57506006544211155b905090565b60065490565b600254600160a060020a031690565b600754604080517f9a43aa98000000000000000000000000000000000000000000000000000000008152600160a060020a038085166004830152915184939290921691639a43aa9891602480820192602092909190829003018186803b1580156103c057600080fd5b505afa1580156103d4573d6000803e3d6000fd5b505050506040513d60208110156103ea57600080fd5b5051151561042c5760405160e560020a62461bcd02815260040180806020018281038252603181526020018061087a6031913960400191505060405180910390fd5b600754604080517fd44f2598000000000000000000000000000000000000000000000000000000008152600160a060020a0384811660048301529151919092169163d44f2598916024808301926020929190829003018186803b15801561049257600080fd5b505afa1580156104a6573d6000803e3d6000fd5b505050506040513d60208110156104bc57600080fd5b505115156104fe5760405160e560020a62461bcd0281526004018080602001828103825260408152602001806108d56040913960400191505060405180910390fd5b6105088484610652565b50505050565b60055490565b600154600160a060020a031690565b61052b610327565b1515610581576040805160e560020a62461bcd02815260206004820152601860248201527f54696d656443726f776473616c653a206e6f74206f70656e0000000000000000604482015290519081900360640190fd5b61030f8282610757565b60006105a2600354836107f890919063ffffffff16565b92915050565b600082820183811015610605576040805160e560020a62461bcd02815260206004820152601b60248201527f536166654d6174683a206164646974696f6e206f766572666c6f770000000000604482015290519081900360640190fd5b9392505050565b61030f8282610652565b600254604051600160a060020a03909116903480156108fc02916000818181858888f1935050505015801561064f573d6000803e3d6000fd5b50565b61065a610514565b600160a060020a03166340c10f1983836040518363ffffffff167c01000000000000000000000000000000000000000000000000000000000281526004018083600160a060020a0316600160a060020a0316815260200182815260200192505050602060405180830381600087803b1580156106d557600080fd5b505af11580156106e9573d6000803e3d6000fd5b505050506040513d60208110156106ff57600080fd5b5051151561030f576040805160e560020a62461bcd02815260206004820152601f60248201527f4d696e74656443726f776473616c653a206d696e74696e67206661696c656400604482015290519081900360640190fd5b600160a060020a03821615156107a15760405160e560020a62461bcd02815260040180806020018281038252602a8152602001806108ab602a913960400191505060405180910390fd5b80151561030f576040805160e560020a62461bcd02815260206004820152601960248201527f43726f776473616c653a20776569416d6f756e74206973203000000000000000604482015290519081900360640190fd5b6000821515610809575060006105a2565b82820282848281151561081857fe5b04146106055760405160e560020a62461bcd0281526004018080602001828103825260218152602001806108596021913960400191505060405180910390fdfe536166654d6174683a206d756c7469706c69636174696f6e206f766572666c6f77566f74696e67546f6b656e417574686f7269736174696f6e3a2043616c6c6572206973206e6f7420616e2061646d696e2143726f776473616c653a2062656e656669636961727920697320746865207a65726f2061646472657373566f74696e67546f6b656e417574686f7269736174696f6e3a2043616c6c657220697320616e2061646d696e20627574206e6f7420617574686f726973656421a165627a7a723058204df89c507efd4c4a43c8104841d91d393b2f99c5b7e59a61b4acfc3c49195ae1002954696d656443726f776473616c653a206f70656e696e672074696d65206973206265666f72652063757272656e742074696d6554696d656443726f776473616c653a206f70656e696e672074696d65206973206e6f74206265666f726520636c6f73696e672074696d6543726f776473616c653a20746f6b656e20697320746865207a65726f206164647265737343726f776473616c653a2077616c6c657420697320746865207a65726f206164647265737360806040523480156200001157600080fd5b506040516200129e3803806200129e833981018060405260c08110156200003757600080fd5b81516020830151604084015160608501805193959294919391830192916401000000008111156200006757600080fd5b820160208101848111156200007b57600080fd5b81516401000000008111828201871017156200009657600080fd5b505060208281015160409093015160038054600160a060020a038a8116600160a060020a031992831617909255600480548c84169216919091179055600280549189166101000261010060a860020a03199092169190911760ff1916905582519295509293506200010d9160059186019062000122565b5060009190915560015550620001c792505050565b828054600181600116156101000203166002900490600052602060002090601f016020900481019282601f106200016557805160ff191683800117855562000195565b8280016001018555821562000195579182015b828111156200019557825182559160200191906001019062000178565b50620001a3929150620001a7565b5090565b620001c491905b80821115620001a35760008155600101620001ae565b90565b6110c780620001d76000396000f3fe608060405234801561001057600080fd5b506004361061015e576000357c0100000000000000000000000000000000000000000000000000000000900480636c4e4731116100d5578063a4d8222511610099578063a4d8222514610546578063ca217a4b1461054e578063cde419a414610556578063cfa84dfe1461055e578063e9d2b91414610566578063f8eb29cb1461058c5761015e565b80636c4e47311461041a5780638155f7361461042257806382b2e2571461042a578063953ea0ea1461044457806398a60220146104855761015e565b80632a0e1b4f116101275780632a0e1b4f146102ba578063331502d5146102c25780633effd185146102ee5780634f5a7273146103975780635eefe5be146103d15780635f74bbde146103ee5761015e565b80629808e6146101635780630a16e30b1461019b5780631b95f76b146101f35780631e0efcf3146101fb578063240bbd8c14610296575b600080fd5b6101996004803603606081101561017957600080fd5b50600160a060020a038135811691602081013590911690604001356105a9565b005b6101a3610772565b60408051602080825283518183015283519192839290830191858101910280838360005b838110156101df5781810151838201526020016101c7565b505050509050019250505060405180910390f35b6101996107d5565b6102216004803603602081101561021157600080fd5b5035600160a060020a03166107eb565b6040805160208082528351818301528351919283929083019185019080838360005b8381101561025b578181015183820152602001610243565b50505050905090810190601f1680156102885780820380516001836020036101000a031916815260200191505b509250505060405180910390f35b61029e610896565b60408051600160a060020a039092168252519081900360200190f35b61029e6108a5565b6102ca6108b4565b604051808260028111156102da57fe5b60ff16815260200191505060405180910390f35b6103146004803603602081101561030457600080fd5b5035600160a060020a03166108bd565b604051808060200183151515158152602001828103825284818151815260200191508051906020019080838360005b8381101561035b578181015183820152602001610343565b50505050905090810190601f1680156103885780820380516001836020036101000a031916815260200191505b50935050505060405180910390f35b6103bd600480360360208110156103ad57600080fd5b5035600160a060020a0316610967565b604080519115158252519081900360200190f35b61029e600480360360208110156103e757600080fd5b5035610985565b6101996004803603604081101561040457600080fd5b50600160a060020a0381351690602001356109ad565b61029e610aec565b6101a3610afb565b610432610b5b565b60408051918252519081900360200190f35b61046a6004803603602081101561045a57600080fd5b5035600160a060020a0316610bf5565b60408051921515835260208301919091528051918290030190f35b6101996004803603606081101561049b57600080fd5b600160a060020a0382351691908101906040810160208201356401000000008111156104c657600080fd5b8201836020820111156104d857600080fd5b803590602001918460018302840111640100000000831117156104fa57600080fd5b91908080601f01602080910402602001604051908101604052809392919081815260200183838082843760009201919091525092955050509035600160a060020a03169150610c149050565b61029e610d18565b61029e610d2c565b610199610d3b565b610221610d55565b6103bd6004803603602081101561057c57600080fd5b5035600160a060020a0316610de3565b61029e600480360360208110156105a257600080fd5b5035610e04565b60048054604080517f9a43aa98000000000000000000000000000000000000000000000000000000008152600160a060020a03808716948201949094529051859390921691639a43aa9891602480820192602092909190829003018186803b15801561061457600080fd5b505afa158015610628573d6000803e3d6000fd5b505050506040513d602081101561063e57600080fd5b50511515610696576040805160e560020a62461bcd02815260206004820152601760248201527f43616c6c6572206973206e6f7420616e2061646d696e21000000000000000000604482015290519081900360640190fd5b61069f84610967565b156106de5760405160e560020a62461bcd0281526004018080602001828103825260348152602001806110686034913960400191505060405180910390fd5b5060408051808201825260018082526020808301948552600160a060020a0396909616600081815260099097529286209151825460ff1916901515178255925190830155600a805492830181559093527fc65a7bb8d6351c1cf70c95a316cc6a92839c986682d98bc35f958f4883f9d2a801805473ffffffffffffffffffffffffffffffffffffffff191690921790915550565b6060600a8054806020026020016040519081016040528092919081815260200182805480156107ca57602002820191906000526020600020905b8154600160a060020a031681526001909101906020018083116107ac575b505050505090505b90565b600280546001919060ff191682805b0217905550565b600160a060020a03811660009081526007602090815260409182902080548351601f600260001961010060018616150201909316929092049182018490048402810184019094528084526060939283018282801561088a5780601f1061085f5761010080835404028352916020019161088a565b820191906000526020600020905b81548152906001019060200180831161086d57829003601f168201915b50505050509050919050565b600654600160a060020a031681565b600454600160a060020a031681565b60025460ff1681565b60076020908152600091825260409182902080548351601f600260001961010060018616150201909316929092049182018490048402810184019094528084529092918391908301828280156109545780601f1061092957610100808354040283529160200191610954565b820191906000526020600020905b81548152906001019060200180831161093757829003601f168201915b5050506001909301549192505060ff1682565b600160a060020a031660009081526009602052604090205460ff1690565b600880548290811061099357fe5b600091825260209091200154600160a060020a0316905081565b336109b781610967565b1515610a0d576040805160e560020a62461bcd02815260206004820152601a60248201527f566f74657220616464726573732069736e27742073746f726564000000000000604482015290519081900360640190fd5b610a15610b5b565b1515610a555760405160e560020a62461bcd0281526004018080602001828103825260258152602001806110436025913960400191505060405180910390fd5b600254604080517fefa5d431000000000000000000000000000000000000000000000000000000008152336004820152600160a060020a0386811660248301526044820186905291516101009093049091169163efa5d4319160648082019260009290919082900301818387803b158015610acf57600080fd5b505af1158015610ae3573d6000803e3d6000fd5b50505050505050565b600654600160a060020a031690565b606060088054806020026020016040519081016040528092919081815260200182805480156107ca57602002820191906000526020600020908154600160a060020a031681526001909101906020018083116107ac575050505050905090565b600254604080517f70a0823100000000000000000000000000000000000000000000000000000000815233600482015290516000926101009004600160a060020a0316916370a08231916024808301926020929190829003018186803b158015610bc457600080fd5b505afa158015610bd8573d6000803e3d6000fd5b505050506040513d6020811015610bee57600080fd5b5051905090565b6009602052600090815260409020805460019091015460ff9091169082565b610c1d81610de3565b15610c5c5760405160e560020a62461bcd0281526004018080602001828103825260348152602001806110686034913960400191505060405180910390fd5b6040805180820182528381526001602080830191909152600160a060020a038416600090815260078252929092208151805192939192610c9f9284920190610faa565b50602091909101516001918201805460ff19169115159190911790556008805491820181556000527ff3f7a9fe364faab93b216da50a3214154f22a0a2b415b23a84c8169e8b636ee301805473ffffffffffffffffffffffffffffffffffffffff1916600160a060020a03929092169190911790555050565b6002546101009004600160a060020a031681565b600354600160a060020a031681565b610d43610e12565b60028054819060ff19166001826107e4565b6005805460408051602060026001851615610100026000190190941693909304601f81018490048402820184019092528181529291830182828015610ddb5780601f10610db057610100808354040283529160200191610ddb565b820191906000526020600020905b815481529060010190602001808311610dbe57829003601f168201915b505050505081565b600160a060020a031660009081526007602052604090206001015460ff1690565b600a80548290811061099357fe5b600080805b600854811015610fa5576008805482908110610e2f57fe5b60009182526020918290200154600254604080517f70a08231000000000000000000000000000000000000000000000000000000008152600160a060020a03938416600482018190529151919650610100909204909216926370a0823192602480840193829003018186803b158015610ea757600080fd5b505afa158015610ebb573d6000803e3d6000fd5b505050506040513d6020811015610ed157600080fd5b5051831015610f9d57600254604080517f70a08231000000000000000000000000000000000000000000000000000000008152600160a060020a0385811660048301529151610100909304909116916370a0823191602480820192602092909190829003018186803b158015610f4657600080fd5b505afa158015610f5a573d6000803e3d6000fd5b505050506040513d6020811015610f7057600080fd5b50516006805473ffffffffffffffffffffffffffffffffffffffff1916600160a060020a03851617905592505b600101610e17565b505050565b828054600181600116156101000203166002900490600052602060002090601f016020900481019282601f10610feb57805160ff1916838001178555611018565b82800160010185558215611018579182015b82811115611018578251825591602001919060010190610ffd565b50611024929150611028565b5090565b6107d291905b80821115611024576000815560010161102e56fe566f74657220646f65736e2774206861766520616e7920566f74696e6720546f6b656e7321546869732063616e6469646174654164647265737320616464726573732068617320616c7265616479206265656e206164646564a165627a7a723058209c9699ff28ce931efdcd8eae3208293564e26aa4c5eff60bdcb39623fa3d3039002943616c6c6572206973206e6f7420616e2061646d696e210000000000000000005468697320617070726f76616c2068617320616c7265616479206265656e207375626d6974746564215468697320656c656374696f6e20616464726573732068617320616c7265616479206265656e20616464656443616c6c657220697320616e2061646d696e2c20627574206e6f742063757272656e746c7920617574686f726973656421596f75206861766520616e206f75747374616e64696e6720726571756573742c20706c65617365207761697420666f72207468617420746f2062652070726f636573736564546869732061646d696e20616464726573732068617320616c7265616479206265656e206164646564a165627a7a72305820d6577c4eee8b949a6161c64ccfa1accab341c7f8bffbea2fc81ac5d56a6598f50029546869732061646d696e20616464726573732068617320616c7265616479206265656e206164646564",
  "source": "pragma solidity ^0.5.3;\n\nimport \"openzeppelin-solidity/contracts/ownership/Ownable.sol\";\nimport \"./Election.sol\";\nimport \"./ApprovalQueue.sol\";\nimport \"./VotingTokenAuthorisation.sol\";\nimport \"./VotingToken.sol\";\n\n\n/**\nAn Institution can create Election Smart Contracts exclusivley for themselves. */\ncontract Institution is ApprovalQueue {\n\n    string public _institutionName;\n\n    VotingTokenAuthorisation public _tokenAuthorisation;\n    VotingToken public _deployedVotingToken;\n\n    struct InstitutionAdmin {\n        string name;\n        bool isAuthorised;\n        // Allow the mapping _institutionAdmins to be easily queried for admins that exist.\n        bool isInitialised;\n    }\n\n    // Enable the prevention of duplicate addresses caused by\n    // unforseen, errant client requests.\n    struct VoterRequestStruct {\n        bool isPending;\n        bool isAuthorised;\n        bool isInitialised;\n    }\n\n    // Enable the prevention of duplicate addresses caused by\n    // unforseen, errant client requests.\n    struct ElectionAddressStruct {\n        bool isAddress;\n    }\n\n    // Store Election addresses so they can be accessed without iteration. This\n    // limits gas costs. This also means that we can efficiently keep track of whether\n    // or not an address is stored, because the Struct that is mapped to the address contains\n    // the flag isAddress that can evaulated to see if an address exists.\n    mapping(address => ElectionAddressStruct) public _electionAddressMapping;\n\n    // Store authorised institution admins.\n    // At some point in the future, they may be come de-authorised, for example\n    // if an admin steps down and in which case the \"isAuthorised\" flag will be set to false.\n    // Crucially, however, this mapping will only store owners that have been authorised in\n    // the first instance.\n    mapping(address => InstitutionAdmin) public _institutionAdmins;\n\n    // Authorised voters\n    mapping(address => VoterRequestStruct) public _voterRequests;\n\n    // Store admin addresses in array for quick acceess and to reveal more information\n    // about contract state, such as bow many admins there are.\n    address[] public _adminAddresses;\n\n    // Store the address of all prior-purchased elections.\n    address[] public _electionAddresses;\n\n    // Emit an event when a new admin has been added.\n    event LogNewAdmin(address newAdmin);\n\n    // Emit an event on Election contract creation.\n    event LogNewElection(address election);\n\n    /**\n     * @param institutionName the name of the new Institution\n     * @param adminName full name of the admin who submitted the new institution request\n     * @param adminAddress addres of  the admin who submitted the new institution request\n     */\n    constructor (string memory institutionName, string memory adminName, address adminAddress, VotingToken deployedVotingToken)\n    public {\n        // Set the institution name.\n        _institutionName = institutionName;\n\n        // Store details of the first admin to be approved\n        require(!isAdminStored(adminAddress),\"This admin address has already been added\");\n        _institutionAdmins[adminAddress] = InstitutionAdmin(adminName, true, true);\n         // Add address of newly created Institutions to dynamically sized array for quick access.\n        _adminAddresses.push(adminAddress);\n        // Give Institution access to the deployed voting token\n        _deployedVotingToken = deployedVotingToken;\n    }\n\n    function getInstitutionName() public view returns(string memory) {\n        return _institutionName;\n    }\n\n    ///////////ADMIN APPROVAL REQUEST FLOW ///////////\n\n\n    // Emit an event on Institution contract creation.\n    event NewAdminApproved(address admin);\n\n    function approveAdminRequest(address submittingAddress) public {\n        super.approveRequest(submittingAddress);\n\n        bytes32[] memory data = getRequestData(submittingAddress);\n        string memory adminName;\n        adminName = super.bytes32ToString(data[0]);\n        // Store the new admin info in mapping and array.\n        addNewAdmin(adminName, submittingAddress);\n\n        // New Institution created sucessfully so set the request to not pending.\n        _approvalRequestQueue[submittingAddress].isPending = false;\n        // Emit the succesfull approval of the new admin.\n\n        emit LogNewAdmin(submittingAddress);\n    }\n\n    function submitAdminApprovalRequest(bytes32[] memory requestData) public {\n       // institutionName adminFirstName adminSurname adminAddress\n        super.submitApprovalRequest(\"adminApprovalRequest\", requestData);\n    }\n    \n\n    function addNewAdmin(string memory adminName, address adminAddress)\n    public isAdmin(msg.sender) isAuthorisedAdmin(msg.sender) {\n        // Check for duplicate admin address\n        require(!isAdminStored(adminAddress),\"This admin address has already been added\");\n        _institutionAdmins[adminAddress] = InstitutionAdmin(adminName, true, true);\n         // Add address of newly created Institutions to dynamically sized array for quick access.\n        _adminAddresses.push(adminAddress);\n    }\n\n    function unauthoriseAdmin(address admin) public {\n        require(isAdminStored(admin),\"Admin address not found!\");\n        require(isAdminAuthorised(admin),\"Admin is already unauthorised!\");\n        _institutionAdmins[admin].isAuthorised = false;\n    }\n\n    modifier isAdmin(address caller) {\n        require(isAdminStored(caller), \"Caller is not an admin!\");\n        _;\n    }\n\n    modifier isAuthorisedAdmin(address caller) {\n        require(isAdminAuthorised(caller), \"Caller is an admin, but not currently authorised!\");\n        _;\n    }\n\n    function getAdmin(address storedAdmin) public view returns(string memory, bool) {\n        // require(isAdminStored(storedAdmin), \"Admin address not found\"); // TODO shouldn't need this, as we'll be using the array as the index.\n        if (isAdminStored(storedAdmin)) { // TODO this might not be reachable as the return is in the if if it's anything like Java and\n        //the comment above should apply about using the array as the inex\n            return (_institutionAdmins[storedAdmin].name, _institutionAdmins[storedAdmin].isAuthorised);\n        }\n\n    }\n\n    function isAdminStored(address admin) public view returns(bool isStored) {\n        return _institutionAdmins[admin].isInitialised;\n    }\n\n\n    function isAdminAuthorised(address admin) public view returns(bool isStored) {\n        return _institutionAdmins[admin].isAuthorised;\n    }\n\n\n    ///////////ELECTION OPERATIONS///////////\n\n    // Emit an event on Institution contract creation.\n    event NewElectionCreated(address election);\n    /**\n    Create a new Election contract which can then be configured by a customer per their requirements. */\n    function createElection(uint256 openingTime, uint256  closingTime, string memory description) public isAdmin(msg.sender) isAuthorisedAdmin(msg.sender) {\n        _tokenAuthorisation = new VotingTokenAuthorisation(Institution(this), msg.sender, openingTime, closingTime, _deployedVotingToken);\n        // Let VotingTokenAuthorisation have the role as minter so it can mint tokens for voters upon request.\n        _deployedVotingToken.addMinter(address(_tokenAuthorisation));\n        // Create new Election contract.\n        Election election = new Election(address(this), _tokenAuthorisation, _deployedVotingToken, description, now, closingTime);\n        // Get the address of the newly created Election contract.\n        address electionContractAddress = (address(election));\n        // Add information about the newly created contract so it can be accessed later.\n        storeNewElection(electionContractAddress, msg.sender);\n        // Emit the creation of the new Election as an event.\n        emit NewElectionCreated(electionContractAddress);\n    }\n\n    function storeNewElection(address election, address admin) public isAdmin(admin) isAuthorisedAdmin(admin) {\n        // Check for duplicate election address\n        require(!isElectionAddressStored(election),\"This election address has already been added\");\n        _electionAddressMapping[election] = ElectionAddressStruct(true);\n         // Add address of newly created Institutions to dynamically sized array for quick access.\n        _electionAddresses.push(election);\n    }\n\n    function isElectionAddressStored(address election) public view returns (bool) {\n        return _electionAddressMapping[election].isAddress;\n    }\n\n    ///////////CANDIDATE APPROVAL OPERATIONS///////////\n\n    // Emit an event on Institution contract creation.\n    event NewCandidateApproved(address candidate);\n\n    function approveCandidateRequest(address submittingAddress) public {\n        super.approveRequest(submittingAddress);\n\n        bytes32[] memory data = getRequestData(submittingAddress);\n        string memory candidateName;\n        candidateName = super.bytes32ToString(data[0]);\n        address election = _approvalRequestQueue[submittingAddress].election;\n        Election(election).addNewCandidate(msg.sender, candidateName, submittingAddress);\n        // New Institution created sucessfully so set the request to not pending.\n        _approvalRequestQueue[submittingAddress].isPending = false;\n        // Emit the succesfull approval of the new admin.\n\n        emit NewCandidateApproved(submittingAddress);\n    }\n\n    function submitCandidateApprovalRequest(bytes32[] memory requestData, address electionAddress) public {\n        require(!_approvalRequestQueue[msg.sender].isPending, \"You have an outstanding request, please wait for that to be processed\");\n        require(!isApprovalStored(msg.sender), \"This approval has already been submitted!\");\n        ApprovalRequest memory newApprovalRequest;\n        // Initialise new approval request\n        newApprovalRequest.submitter = msg.sender;\n        newApprovalRequest.isPending = true;\n        newApprovalRequest.approvalType = \"candidateApprovalRequest\";\n        newApprovalRequest.data = requestData;\n        newApprovalRequest.election = electionAddress;\n        newApprovalRequest.isInitialised = true;\n\n        // Add the approval request to the approval queue mapping, mapped by the\n        // prospective admin's address.\n        _approvalRequestQueue[msg.sender] = newApprovalRequest;\n    }\n\n    // Emit an event on voter approval.\n    event NewVoterApproved(address voter);\n    function approveVoterRequest(address submittingAddress, uint amount) public isAdmin(msg.sender){\n        super.approveRequest(submittingAddress);\n\n        //the comment above should apply about using the array as the inex\n        address election = _approvalRequestQueue[submittingAddress].election;\n        _tokenAuthorisation.sendVotingToken(submittingAddress, amount, msg.sender);\n        // Store the new admin info in mapping and array.\n        Election(election).addNewVoter(submittingAddress, msg.sender, amount);\n\n        // New Institution created sucessfully so set the request to not pending.\n\n        _approvalRequestQueue[submittingAddress].isPending = false;\n        emit NewVoterApproved(submittingAddress);\n    }\n\n    // Request data will contain election address they are requesting approval for!!!\n    function submitVoterApprovalRequest(address electionAddress) public {\n        require(!_approvalRequestQueue[msg.sender].isPending, \"You have an outstanding request, please wait for that to be processed\");\n        require(!isApprovalStored(msg.sender), \"This approval has already been submitted!\");\n        ApprovalRequest memory newApprovalRequest;\n        // Initialise new approval request\n        newApprovalRequest.submitter = msg.sender;\n        newApprovalRequest.isPending = true;\n        newApprovalRequest.approvalType = \"voterApprovalRequest\";\n        newApprovalRequest.election = electionAddress;\n        newApprovalRequest.isInitialised = true;\n\n        // Add the approval request to the approval queue mapping, mapped by the\n        // prospective admin's address.\n        _approvalRequestQueue[msg.sender] = newApprovalRequest;\n        emit NewApprovalSubmitted(msg.sender);\n\n    }\n\n    function getAdminAddressArray() public view returns (address[] memory) {\n        return _adminAddresses;\n    }\n\n\n    function setVotingTokenAddress(VotingToken votingToken) public {\n        _deployedVotingToken = votingToken;\n    }\n\n    function getVotingTokenAddress() public view returns (VotingToken) {\n        return _deployedVotingToken;\n    }\n\n}",
  "sourcePath": "/Users/erdi/git/final-year-project/dapp-backend/contracts/Institution.sol",
  "compiler": {
    "name": "solc",
    "version": "0.5.3+commit.10d17f24.Emscripten.clang"
  },
  "schemaVersion": "3.0.11",
  "updatedAt": "2019-07-26T07:21:33.992Z",
  "devdoc": {
    "methods": {
      "approveRequest(address)": {
        "details": "inherriting contracts must override this based on their requirements."
      },
      "constructor": {
        "params": {
          "adminAddress": "addres of  the admin who submitted the new institution request",
          "adminName": "full name of the admin who submitted the new institution request",
          "institutionName": "the name of the new Institution"
        }
      }
    }
  },
  "userdoc": {
    "methods": {
      "bytes32ToString(bytes32)": {
        "notice": "Helper method to get data from a request Taken from https://ethereum.stackexchange.com/questions/29295/how-to-convert-a-bytes-to-string-in-solidity"
      },
      "createElection(uint256,uint256,string)": {
        "notice": "Create a new Election contract which can then be configured by a customer per their requirements. "
      },
      "kill()": {
        "notice": "Self-destruct this contract // TODO expand explanation. Kill() method taken and modified from: https://kalis.me/check-events-solidity-smart-contract-test-truffle/"
      }
    },
    "notice": "An Institution can create Election Smart Contracts exclusivley for themselves. "
  }
}