{
  "contractName": "RLPReader",
  "abi": [
    {
      "constant": true,
      "inputs": [
        {
          "name": "raw_transaction",
          "type": "bytes"
        }
      ],
      "name": "decode_transaction",
      "outputs": [
        {
          "name": "",
          "type": "uint256"
        },
        {
          "name": "",
          "type": "uint256"
        },
        {
          "name": "",
          "type": "uint256"
        },
        {
          "name": "",
          "type": "address"
        },
        {
          "name": "",
          "type": "uint256"
        },
        {
          "name": "",
          "type": "bytes"
        }
      ],
      "payable": false,
      "stateMutability": "pure",
      "type": "function"
    }
  ],
  "bytecode": "0x610744610030600b82828239805160001a6073146000811461002057610022565bfe5b5030600052607381538281f3fe7300000000000000000000000000000000000000003014608060405260043610610051577c01000000000000000000000000000000000000000000000000000000006000350463781cebc18114610056575b600080fd5b6100fc6004803603602081101561006c57600080fd5b81019060208101813564010000000081111561008757600080fd5b82018360208201111561009957600080fd5b803590602001918460018302840111640100000000831117156100bb57600080fd5b91908080601f0160208091040260200160405190810160405280939291908181526020018383808284376000920191909152509295506101c3945050505050565b604051808781526020018681526020018581526020018473ffffffffffffffffffffffffffffffffffffffff1673ffffffffffffffffffffffffffffffffffffffff16815260200183815260200180602001828103825283818151815260200191508051906020019080838360005b8381101561018357818101518382015260200161016b565b50505050905090810190601f1680156101b05780820380516001836020036101000a031916815260200191505b5097505050505050505060405180910390f35b60008060008060006060806101df6101da8961028f565b6102d7565b90506102028160008151811015156101f357fe5b90602001906020020151610409565b6102148260018151811015156101f357fe5b6102268360028151811015156101f357fe5b61024784600381518110151561023857fe5b90602001906020020151610437565b6102598560048151811015156101f357fe5b61027a86600581518110151561026b57fe5b906020019060200201516104a4565b949d939c50919a509850965090945092505050565b6102976106c7565b815115156102b9575060408051808201909152600080825260208201526102d2565b5060408051808201909152815181526020828101908201525b919050565b60606102e282610511565b151561034f57604080517f08c379a000000000000000000000000000000000000000000000000000000000815260206004820152600d60248201527f69734c697374206661696c656400000000000000000000000000000000000000604482015290519081900360640190fd5b600061035a83610540565b90508060405190808252806020026020018201604052801561039657816020015b6103836106c7565b81526020019060019003908161037b5790505b50915060006103a8846020015161058d565b60208501510190506000805b83811015610400576103c5836105f6565b915060408051908101604052808381526020018481525085828151811015156103ea57fe5b60209081029091010152918101916001016103b4565b50505050919050565b600080610419836020015161058d565b83516020948501518201519190039093036101000a90920492915050565b805160009060151015610495576040517f08c379a000000000000000000000000000000000000000000000000000000000815260040180806020018281038252603a8152602001806106df603a913960400191505060405180910390fd5b61049e82610409565b92915050565b606060006104b5836020015161058d565b83516040805191839003808352601f19601f82011683016020019091529192506060908280156104ec576020820181803883390190505b5090506000816020019050610508848760200151018285610686565b50949350505050565b6020810151805160009190821a9060c060ff83161015610536576000925050506102d2565b5060019392505050565b600080600090506000610556846020015161058d565b602085015185519181019250015b8082101561058457610575826105f6565b60019093019290910190610564565b50909392505050565b8051600090811a60808110156105a75760009150506102d2565b60b88110806105c2575060c081108015906105c2575060f881105b156105d15760019150506102d2565b60c08110156105e55760b5190190506102d2565b60f5190190506102d2565b50919050565b8051600090811a60808110156106105760019150506102d2565b60b881101561062457607e190190506102d2565b60c08110156106515760b78103600184019350806020036101000a845104600182018101935050506105f0565b60f88110156106655760be190190506102d2565b60019290920151602083900360f7016101000a900490910160f51901919050565b5b602081106106a6578251825260209283019290910190601f1901610687565b915181516020939093036101000a6000190180199091169216919091179052565b60408051808201909152600080825260208201529056fe496e76616c696420524c504974656d2e204164647265737365732061726520656e636f64656420696e203230206279746573206f72206c657373a165627a7a723058200ad42d918b1632b383532f5ced74f3dc4553dd790a9606faeb3975924421e5ad0029",
  "source": "/*\n* Taken from https://github.com/hamdiallam/Solidity-RLP\n*/\n\npragma solidity >=0.4.0 <0.6.0;\n\nlibrary RLPReader {\n\n    uint8 constant STRING_SHORT_START = 0x80;\n    uint8 constant STRING_LONG_START = 0xb8;\n    uint8 constant LIST_SHORT_START = 0xc0;\n    uint8 constant LIST_LONG_START = 0xf8;\n    uint8 constant WORD_SIZE = 32;\n\n    struct RLPItem {\n        uint len;\n        uint memPtr;\n    }\n\n    using RLPReader for bytes;\n    using RLPReader for uint;\n    using RLPReader for RLPReader.RLPItem;\n\n    // helper function to decode rlp encoded  ethereum transaction\n    /*\n    * @param raw_transaction RLP encoded ethereum transaction\n    * @return tuple (nonce,gas_price,gas_limit,to,value,data)\n    */\n\n    function decode_transaction(bytes memory raw_transaction) public pure returns (uint, uint, uint, address, uint, bytes memory){\n        RLPReader.RLPItem[] memory values = raw_transaction.toRlpItem().toList(); // must convert to an rlpItem first!\n        return (values[0].toUint(), values[1].toUint(), values[2].toUint(), values[3].toAddress(), values[4].toUint(), values[5].toBytes());\n    }\n\n    function bytesToBytes32(bytes memory b, uint offset) private pure returns (bytes32) {\n        bytes32 out;\n        for (uint i = 0; i < 32; i++) {\n            out |= bytes32(b[offset + i] & 0xFF) >> (i * 8);\n        }\n        return out;\n    }\n\n    /*\n    * @param item RLP encoded bytes\n    */\n    function toRlpItem(bytes memory item) internal pure returns (RLPItem memory) {\n        if (item.length == 0)\n            return RLPItem(0, 0);\n        uint memPtr;\n        assembly {\n            memPtr := add(item, 0x20)\n        }\n        return RLPItem(item.length, memPtr);\n    }\n    /*\n    * @param item RLP encoded list in bytes\n    */\n    function toList(RLPItem memory item) internal pure returns (RLPItem[] memory result) {\n        require(isList(item), \"isList failed\");\n        uint items = numItems(item);\n        result = new RLPItem[](items);\n        uint memPtr = item.memPtr + _payloadOffset(item.memPtr);\n        uint dataLen;\n        for (uint i = 0; i < items; i++) {\n            dataLen = _itemLength(memPtr);\n            result[i] = RLPItem(dataLen, memPtr);\n            memPtr = memPtr + dataLen;\n        }\n    }\n    /*\n    * Helpers\n    */\n    // @return indicator whether encoded payload is a list. negate this function call for isData.\n    function isList(RLPItem memory item) internal pure returns (bool) {\n        uint8 byte0;\n        uint memPtr = item.memPtr;\n        assembly {\n            byte0 := byte(0, mload(memPtr))\n        }\n        if (byte0 < LIST_SHORT_START)\n            return false;\n        return true;\n    }\n    // @return number of payload items inside an encoded list.\n    function numItems(RLPItem memory item) internal pure returns (uint) {\n        uint count = 0;\n        uint currPtr = item.memPtr + _payloadOffset(item.memPtr);\n        uint endPtr = item.memPtr + item.len;\n        while (currPtr < endPtr) {\n            currPtr = currPtr + _itemLength(currPtr);\n            // skip over an item\n            count++;\n        }\n        return count;\n    }\n    // @return entire rlp item byte length\n    function _itemLength(uint memPtr) internal pure returns (uint len) {\n        uint byte0;\n        assembly {\n            byte0 := byte(0, mload(memPtr))\n        }\n        if (byte0 < STRING_SHORT_START)\n            return 1;\n        else if (byte0 < STRING_LONG_START)\n            return byte0 - STRING_SHORT_START + 1;\n        else if (byte0 < LIST_SHORT_START) {\n            assembly {\n                let byteLen := sub(byte0, 0xb7) // # of bytes the actual length is\n                memPtr := add(memPtr, 1) // skip over the first byte\n            /* 32 byte word size */\n                let dataLen := div(mload(memPtr), exp(256, sub(32, byteLen))) // right shifting to get the len\n                len := add(dataLen, add(byteLen, 1))\n            }\n        }\n        else if (byte0 < LIST_LONG_START) {\n            return byte0 - LIST_SHORT_START + 1;\n        }\n        else {\n            assembly {\n                let byteLen := sub(byte0, 0xf7)\n                memPtr := add(memPtr, 1)\n                let dataLen := div(mload(memPtr), exp(256, sub(32, byteLen))) // right shifting to the correct length\n                len := add(dataLen, add(byteLen, 1))\n            }\n        }\n    }\n    // @return number of bytes until the data\n    function _payloadOffset(uint memPtr) internal pure returns (uint) {\n        uint byte0;\n        assembly {\n            byte0 := byte(0, mload(memPtr))\n        }\n        if (byte0 < STRING_SHORT_START)\n            return 0;\n        else if (byte0 < STRING_LONG_START || (byte0 >= LIST_SHORT_START && byte0 < LIST_LONG_START))\n            return 1;\n        else if (byte0 < LIST_SHORT_START)  // being explicit\n            return byte0 - (STRING_LONG_START - 1) + 1;\n        else\n            return byte0 - (LIST_LONG_START - 1) + 1;\n    }\n    /** RLPItem conversions into data types **/\n    // @returns raw rlp encoding in bytes\n    function toRlpBytes(RLPItem memory item) internal pure returns (bytes memory) {\n        bytes memory result = new bytes(item.len);\n        uint ptr;\n        assembly {\n            ptr := add(0x20, result)\n        }\n        copy(item.memPtr, ptr, item.len);\n        return result;\n    }\n\n    function toBoolean(RLPItem memory item) internal pure returns (bool) {\n        require(item.len == 1, \"Invalid RLPItem. Booleans are encoded in 1 byte\");\n        uint result;\n        uint memPtr = item.memPtr;\n        assembly {\n            result := byte(0, mload(memPtr))\n        }\n        return result == 0 ? false : true;\n    }\n\n    function toAddress(RLPItem memory item) internal pure returns (address) {\n        // 1 byte for the length prefix according to RLP spec\n        require(item.len <= 21, \"Invalid RLPItem. Addresses are encoded in 20 bytes or less\");\n        return address(toUint(item));\n    }\n\n    function toUint(RLPItem memory item) internal pure returns (uint) {\n        uint offset = _payloadOffset(item.memPtr);\n        uint len = item.len - offset;\n        uint memPtr = item.memPtr + offset;\n        uint result;\n        assembly {\n            result := div(mload(memPtr), exp(256, sub(32, len))) // shift to the correct location\n        }\n        return result;\n    }\n\n    function toBytes(RLPItem memory item) internal pure returns (bytes memory) {\n        uint offset = _payloadOffset(item.memPtr);\n        uint len = item.len - offset;\n        // data length\n        bytes memory result = new bytes(len);\n        uint destPtr;\n        assembly {\n            destPtr := add(0x20, result)\n        }\n        copy(item.memPtr + offset, destPtr, len);\n        return result;\n    }\n    /*\n    * @param src Pointer to source\n    * @param dest Pointer to destination\n    * @param len Amount of memory to copy from the source\n    */\n    function copy(uint src, uint dest, uint len) internal pure {\n        // copy as many word sizes as possible\n        for (; len >= WORD_SIZE; len -= WORD_SIZE) {\n            assembly {\n                mstore(dest, mload(src))\n            }\n            src += WORD_SIZE;\n            dest += WORD_SIZE;\n        }\n        // left over bytes. Mask is used to remove unwanted bytes from the word\n        uint mask = 256 ** (WORD_SIZE - len) - 1;\n        assembly {\n            let srcpart := and(mload(src), not(mask)) // zero out src\n            let destpart := and(mload(dest), mask) // retrieve the bytes\n            mstore(dest, or(destpart, srcpart))\n        }\n    }\n}\n",
  "sourcePath": "tabookey-gasless/contracts/RLPReader.sol",
  "compiler": {
    "name": "solc",
    "version": "0.5.3+commit.10d17f24.Emscripten.clang"
  },
  "schemaVersion": "3.0.11",
  "updatedAt": "2019-07-18T13:38:02.448Z",
  "devdoc": {
    "methods": {}
  },
  "userdoc": {
    "methods": {}
  }
}