{
  "contractName": "UniversityVoting",
  "abi": [
    {
      "constant": true,
      "inputs": [
        {
          "name": "submittingAddress",
          "type": "address"
        }
      ],
      "name": "approveRequest",
      "outputs": [],
      "payable": false,
      "stateMutability": "view",
      "type": "function"
    },
    {
      "constant": true,
      "inputs": [],
      "name": "payableOwner",
      "outputs": [
        {
          "name": "",
          "type": "address"
        }
      ],
      "payable": false,
      "stateMutability": "view",
      "type": "function"
    },
    {
      "constant": false,
      "inputs": [],
      "name": "renounceOwnership",
      "outputs": [],
      "payable": false,
      "stateMutability": "nonpayable",
      "type": "function"
    },
    {
      "constant": true,
      "inputs": [
        {
          "name": "",
          "type": "uint256"
        }
      ],
      "name": "_approvalRequestArray",
      "outputs": [
        {
          "name": "",
          "type": "address"
        }
      ],
      "payable": false,
      "stateMutability": "view",
      "type": "function"
    },
    {
      "constant": true,
      "inputs": [],
      "name": "getApprovalRequestAddresses",
      "outputs": [
        {
          "name": "",
          "type": "address[]"
        }
      ],
      "payable": false,
      "stateMutability": "view",
      "type": "function"
    },
    {
      "constant": true,
      "inputs": [],
      "name": "owner",
      "outputs": [
        {
          "name": "",
          "type": "address"
        }
      ],
      "payable": false,
      "stateMutability": "view",
      "type": "function"
    },
    {
      "constant": true,
      "inputs": [],
      "name": "isOwner",
      "outputs": [
        {
          "name": "",
          "type": "bool"
        }
      ],
      "payable": false,
      "stateMutability": "view",
      "type": "function"
    },
    {
      "constant": true,
      "inputs": [
        {
          "name": "x",
          "type": "bytes32"
        }
      ],
      "name": "bytes32ToString",
      "outputs": [
        {
          "name": "",
          "type": "string"
        }
      ],
      "payable": false,
      "stateMutability": "pure",
      "type": "function"
    },
    {
      "constant": true,
      "inputs": [
        {
          "name": "",
          "type": "address"
        }
      ],
      "name": "_addressStructMapping",
      "outputs": [
        {
          "name": "isAddress",
          "type": "bool"
        }
      ],
      "payable": false,
      "stateMutability": "view",
      "type": "function"
    },
    {
      "constant": true,
      "inputs": [
        {
          "name": "",
          "type": "uint256"
        }
      ],
      "name": "_addressArray",
      "outputs": [
        {
          "name": "",
          "type": "address"
        }
      ],
      "payable": false,
      "stateMutability": "view",
      "type": "function"
    },
    {
      "constant": true,
      "inputs": [
        {
          "name": "submittingAddress",
          "type": "address"
        }
      ],
      "name": "getRequestData",
      "outputs": [
        {
          "name": "",
          "type": "bytes32[]"
        }
      ],
      "payable": false,
      "stateMutability": "view",
      "type": "function"
    },
    {
      "constant": false,
      "inputs": [
        {
          "name": "newOwner",
          "type": "address"
        }
      ],
      "name": "transferOwnership",
      "outputs": [],
      "payable": false,
      "stateMutability": "nonpayable",
      "type": "function"
    },
    {
      "constant": false,
      "inputs": [
        {
          "name": "approvalRequestType",
          "type": "string"
        },
        {
          "name": "requestData",
          "type": "bytes32[]"
        }
      ],
      "name": "submitApprovalRequest",
      "outputs": [],
      "payable": false,
      "stateMutability": "nonpayable",
      "type": "function"
    },
    {
      "inputs": [],
      "payable": false,
      "stateMutability": "nonpayable",
      "type": "constructor"
    },
    {
      "anonymous": false,
      "inputs": [
        {
          "indexed": false,
          "name": "institution",
          "type": "address"
        }
      ],
      "name": "NewInstitutionApproved",
      "type": "event"
    },
    {
      "anonymous": false,
      "inputs": [
        {
          "indexed": false,
          "name": "institution",
          "type": "address"
        }
      ],
      "name": "NewApprovalSubmitted",
      "type": "event"
    },
    {
      "anonymous": false,
      "inputs": [
        {
          "indexed": true,
          "name": "previousOwner",
          "type": "address"
        },
        {
          "indexed": true,
          "name": "newOwner",
          "type": "address"
        }
      ],
      "name": "OwnershipTransferred",
      "type": "event"
    },
    {
      "constant": false,
      "inputs": [
        {
          "name": "submittingAddress",
          "type": "address"
        }
      ],
      "name": "approveInstitutionRequest",
      "outputs": [],
      "payable": false,
      "stateMutability": "nonpayable",
      "type": "function"
    },
    {
      "constant": false,
      "inputs": [
        {
          "name": "requestData",
          "type": "bytes32[]"
        }
      ],
      "name": "submitInstitutionApprovalRequest",
      "outputs": [],
      "payable": false,
      "stateMutability": "nonpayable",
      "type": "function"
    },
    {
      "constant": true,
      "inputs": [],
      "name": "getInstitutionsTotal",
      "outputs": [
        {
          "name": "total",
          "type": "uint256"
        }
      ],
      "payable": false,
      "stateMutability": "view",
      "type": "function"
    },
    {
      "constant": true,
      "inputs": [],
      "name": "getInstitutionAddresses",
      "outputs": [
        {
          "name": "",
          "type": "address[]"
        }
      ],
      "payable": false,
      "stateMutability": "view",
      "type": "function"
    },
    {
      "constant": true,
      "inputs": [],
      "name": "getApprovalRequestsSuper",
      "outputs": [
        {
          "name": "",
          "type": "address[]"
        }
      ],
      "payable": false,
      "stateMutability": "view",
      "type": "function"
    },
    {
      "constant": true,
      "inputs": [],
      "name": "getApprovalRequestsNative",
      "outputs": [
        {
          "name": "",
          "type": "address[]"
        }
      ],
      "payable": false,
      "stateMutability": "view",
      "type": "function"
    },
    {
      "constant": false,
      "inputs": [
        {
          "name": "institute",
          "type": "address"
        }
      ],
      "name": "storeInstitutionContractInfo",
      "outputs": [],
      "payable": false,
      "stateMutability": "nonpayable",
      "type": "function"
    },
    {
      "constant": true,
      "inputs": [
        {
          "name": "institute",
          "type": "address"
        }
      ],
      "name": "isInstitutionAddressStored",
      "outputs": [
        {
          "name": "isStored",
          "type": "bool"
        }
      ],
      "payable": false,
      "stateMutability": "view",
      "type": "function"
    },
    {
      "constant": true,
      "inputs": [
        {
          "name": "adminAddress",
          "type": "address"
        }
      ],
      "name": "isApprovalStored",
      "outputs": [
        {
          "name": "isStored",
          "type": "bool"
        }
      ],
      "payable": false,
      "stateMutability": "view",
      "type": "function"
    },
    {
      "constant": false,
      "inputs": [
        {
          "name": "tokenAddress",
          "type": "address"
        }
      ],
      "name": "setVotingTokenAddress",
      "outputs": [],
      "payable": false,
      "stateMutability": "nonpayable",
      "type": "function"
    },
    {
      "constant": true,
      "inputs": [],
      "name": "getVotingTokenAddress",
      "outputs": [
        {
          "name": "",
          "type": "address"
        }
      ],
      "payable": false,
      "stateMutability": "view",
      "type": "function"
    },
    {
      "constant": false,
      "inputs": [],
      "name": "kill",
      "outputs": [],
      "payable": false,
      "stateMutability": "nonpayable",
      "type": "function"
    }
  ],
  "bytecode": "0x608060405234801561001057600080fd5b5060008054600160a060020a0319163317808255604051600160a060020a039190911691907f8be0079c531659141344cd1fd0a4f28419497f9722a3daafe3b4186f6b6457e0908290a361006b640100000000610090810204565b60038054600160a060020a031916600160a060020a039290921691909117905561009f565b600054600160a060020a031690565b615c9b806100ae6000396000f3fe60806040523480156200001157600080fd5b5060043610620001b3576000357c0100000000000000000000000000000000000000000000000000000000900480638f32d59b1162000110578063d7ec802011620000c2578063f0a6ca051162000098578063f0a6ca051462000548578063f2fde38b1462000571578063f840f304146200059a578063ff2fa5c014620005a457620001b3565b8063d7ec802014620004f6578063db80ec93146200051f578063e3b49bfb146200031b57620001b3565b80638f32d59b14620003585780639201de55146200036257806399c374c014620003fa578063a75881e11462000423578063b6e79f0c146200042d578063d64d648b14620004d657620001b3565b80635869f88f116200016a5780635869f88f14620002d5578063715018a614620002f15780637d05ce6814620002fb5780637dbe8b70146200031b5780638c4eb1b814620003255780638da5cb5b146200034e57620001b3565b8063061dff9a14620001b857806306a0337914620001e3578063217e7805146200022057806341c0e1b5146200027c5780634d7a87f914620002865780635848693f14620002ac575b600080fd5b620001e160048036036020811015620001d057600080fd5b5035600160a060020a0316620006d7565b005b6200020c60048036036020811015620001fb57600080fd5b5035600160a060020a03166200073c565b604080519115158252519081900360200190f35b6200022a62000761565b60408051602080825283518183015283519192839290830191858101910280838360005b83811015620002685781810151838201526020016200024e565b505050509050019250505060405180910390f35b620001e162000773565b62000290620007d1565b60408051600160a060020a039092168252519081900360200190f35b620001e160048036036020811015620002c457600080fd5b5035600160a060020a0316620007e0565b620002df6200080f565b60408051918252519081900360200190f35b620001e162000815565b62000290600480360360208110156200031357600080fd5b5035620008bc565b6200022a620008e5565b620001e1600480360360208110156200033d57600080fd5b5035600160a060020a031662000949565b6200029062000a3a565b6200020c62000a49565b62000382600480360360208110156200037a57600080fd5b503562000a5a565b6040805160208082528351818301528351919283929083019185019080838360005b83811015620003be578181015183820152602001620003a4565b50505050905090810190601f168015620003ec5780820380516001836020036101000a031916815260200191505b509250505060405180910390f35b6200020c600480360360208110156200041257600080fd5b5035600160a060020a031662000bf8565b6200029062000c0d565b620001e1600480360360208110156200044557600080fd5b8101906020810181356401000000008111156200046157600080fd5b8201836020820111156200047457600080fd5b803590602001918460208302840111640100000000831117156200049757600080fd5b91908080602002602001604051908101604052809392919081815260200183836020028082843760009201919091525092955062000c1c945050505050565b6200029060048036036020811015620004ee57600080fd5b503562000c5d565b6200020c600480360360208110156200050e57600080fd5b5035600160a060020a031662000c6c565b6200022a600480360360208110156200053757600080fd5b5035600160a060020a031662000c8a565b620001e1600480360360208110156200056057600080fd5b5035600160a060020a031662000d0d565b620001e1600480360360208110156200058957600080fd5b5035600160a060020a031662001000565b6200022a6200105b565b620001e160048036036040811015620005bc57600080fd5b810190602081018135640100000000811115620005d857600080fd5b820183602082011115620005eb57600080fd5b803590602001918460018302840111640100000000831117156200060e57600080fd5b91908080601f01602080910402602001604051908101604052809392919081815260200183838082843760009201919091525092959493602081019350359150506401000000008111156200066257600080fd5b8201836020820111156200067557600080fd5b803590602001918460208302840111640100000000831117156200069857600080fd5b919080806020026020016040519081016040528093929190818152602001838360200280828437600092019190915250929550620010bd945050505050565b620006e2816200073c565b151562000739576040805160e560020a62461bcd02815260206004820152601260248201527f417070726f76616c206e6f7420666f756e640000000000000000000000000000604482015290519081900360640190fd5b50565b600160a060020a03811660009081526001602052604090206003015460ff165b919050565b60606200076d620008e5565b90505b90565b6200077d62000a49565b1515620007c3576040805160e560020a62461bcd028152602060048201819052602482015260008051602062005c29833981519152604482015290519081900360640190fd5b600354600160a060020a0316ff5b600354600160a060020a031681565b6004805473ffffffffffffffffffffffffffffffffffffffff1916600160a060020a0392909216919091179055565b60065490565b6200081f62000a49565b151562000865576040805160e560020a62461bcd028152602060048201819052602482015260008051602062005c29833981519152604482015290519081900360640190fd5b60008054604051600160a060020a03909116907f8be0079c531659141344cd1fd0a4f28419497f9722a3daafe3b4186f6b6457e0908390a36000805473ffffffffffffffffffffffffffffffffffffffff19169055565b6002805482908110620008cb57fe5b600091825260209091200154600160a060020a0316905081565b606060028054806020026020016040519081016040528092919081815260200182805480156200093f57602002820191906000526020600020905b8154600160a060020a0316815260019091019060200180831162000920575b5050505050905090565b620009548162000c6c565b15620009955760405160e560020a62461bcd02815260040180806020018281038252602781526020018062005c496027913960400191505060405180910390fd5b60408051602080820183526001808352600160a060020a03949094166000818152600583528481209351845460ff191690151517909355600680548087019091557ff652222313e28459528d920b65115c16c04f3efc82aaedc97be59f3f377c0d3f01805473ffffffffffffffffffffffffffffffffffffffff19169091179055929092529020805474ff000000000000000000000000000000000000000019169055565b600054600160a060020a031690565b600054600160a060020a0316331490565b6040805160208082528183019092526060918291906020820181803883390190505090506000805b602081101562000b0f576008810260020a85027fff0000000000000000000000000000000000000000000000000000000000000081161562000b055780848481518110151562000ace57fe5b9060200101907effffffffffffffffffffffffffffffffffffffffffffffffffffffffffffff1916908160001a9053506001909201915b5060010162000a82565b506060816040519080825280601f01601f19166020018201604052801562000b3e576020820181803883390190505b50905060005b8281101562000bef57838181518110151562000b5c57fe5b9060200101517f010000000000000000000000000000000000000000000000000000000000000090047f010000000000000000000000000000000000000000000000000000000000000002828281518110151562000bb657fe5b9060200101907effffffffffffffffffffffffffffffffffffffffffffffffffffffffffffff1916908160001a90535060010162000b44565b50949350505050565b60056020526000908152604090205460ff1681565b600454600160a060020a031690565b620007396040805190810160405280601a81526020017f696e737469747574696f6e417070726f76616c5265717565737400000000000081525082620010bd565b6006805482908110620008cb57fe5b600160a060020a031660009081526005602052604090205460ff1690565b606062000c97826200073c565b156200075c57600160a060020a0382166000908152600160209081526040918290206002018054835181840281018401909452808452909183018282801562000d0057602002820191906000526020600020905b81548152602001906001019080831162000ceb575b505050505090506200075c565b62000d1762000a49565b151562000d5d576040805160e560020a62461bcd028152602060048201819052602482015260008051602062005c29833981519152604482015290519081900360640190fd5b62000d6881620006d7565b606062000d758262000c8a565b905060608062000d9e83600081518110151562000d8e57fe5b9060200190602002015162000a5a565b915062000db483600181518110151562000d8e57fe5b600454604051919250600091849184918891600160a060020a03169062000ddb90620013e1565b600160a060020a0380841660408301528216606082015260808082528551908201528451819060208083019160a084019189019080838360005b8381101562000e2f57818101518382015260200162000e15565b50505050905090810190601f16801562000e5d5780820380516001836020036101000a031916815260200191505b50838103825286518152865160209182019188019080838360005b8381101562000e9257818101518382015260200162000e78565b50505050905090810190601f16801562000ec05780820380516001836020036101000a031916815260200191505b509650505050505050604051809103906000f08015801562000ee6573d6000803e3d6000fd5b5060048054604080517f983b2d56000000000000000000000000000000000000000000000000000000008152600160a060020a038086169482019490945290519394508493929091169163983b2d569160248082019260009290919082900301818387803b15801562000f5857600080fd5b505af115801562000f6d573d6000803e3d6000fd5b5050505062000f7c8162000949565b600160a060020a03808716600090815260016020908152604091829020805474ff00000000000000000000000000000000000000001916815560038101805460ff1916905582519385168452915191927f6ef520327ffc335526bd43b582899e489191eb61ae7a59b8654a2c19ec017fb7929081900390910190a150505050505050565b6200100a62000a49565b151562001050576040805160e560020a62461bcd028152602060048201819052602482015260008051602062005c29833981519152604482015290519081900360640190fd5b62000739816200132d565b606060068054806020026020016040519081016040528092919081815260200182805480156200093f57602002820191906000526020600020908154600160a060020a0316815260019091019060200180831162000920575050505050905090565b3360008181526001602052604090205474010000000000000000000000000000000000000000900460ff1615620011295760405160e560020a62461bcd02815260040180806020018281038252604581526020018062005be46045913960600191505060405180910390fd5b3360008181526001602052604090206003015460ff1615620011805760405160e560020a62461bcd02815260040180806020018281038252602981526020018062005bbb6029913960400191505060405180910390fd5b6200118a620013ef565b338082526001602080840182815260408086018a8152606087018a905260808701859052600095865284845294208551815492511515740100000000000000000000000000000000000000000274ff000000000000000000000000000000000000000019600160a060020a039290921673ffffffffffffffffffffffffffffffffffffffff19909416939093171691909117815592518051859493620012369390850192019062001426565b506060820151805162001254916002840191602090910190620014ab565b5060808201516003909101805460a090930151600160a060020a03166101000274ffffffffffffffffffffffffffffffffffffffff001992151560ff199094169390931791909116919091179055600280546001810182556000919091527f405787fa12a823e0f2b7631cc41b3ba8828b3321ca811111fa75cd3aa3bb5ace01805473ffffffffffffffffffffffffffffffffffffffff19163390811790915560408051918252517f62db2a37c394b9a845cfefd9624c1c41185d89a3ea9790c7ccde238ecdc6302f9181900360200190a15050505050565b600160a060020a0381161515620013795760405160e560020a62461bcd02815260040180806020018281038252602681526020018062005b956026913960400191505060405180910390fd5b60008054604051600160a060020a03808516939216917f8be0079c531659141344cd1fd0a4f28419497f9722a3daafe3b4186f6b6457e091a36000805473ffffffffffffffffffffffffffffffffffffffff1916600160a060020a0392909216919091179055565b61468f806200150683390190565b6040805160c0810182526000808252602082018190526060928201839052828201929092526080810182905260a081019190915290565b828054600181600116156101000203166002900490600052602060002090601f016020900481019282601f106200146957805160ff191683800117855562001499565b8280016001018555821562001499579182015b82811115620014995782518255916020019190600101906200147c565b50620014a7929150620014e8565b5090565b828054828255906000526020600020908101928215620014995791602002820182811115620014995782518255916020019190600101906200147c565b6200077091905b80821115620014a75760008155600101620014ef56fe60806040523480156200001157600080fd5b506040516200468f3803806200468f833981018060405260808110156200003757600080fd5b8101908080516401000000008111156200005057600080fd5b820160208101848111156200006457600080fd5b81516401000000008111828201871017156200007f57600080fd5b505092919060200180516401000000008111156200009c57600080fd5b82016020810184811115620000b057600080fd5b8151640100000000811182820187101715620000cb57600080fd5b50506020808301516040909301518651929550929350620000f29160029187019062000267565b50620001078264010000000062000241810204565b156200015f576040517f08c379a0000000000000000000000000000000000000000000000000000000008152600401808060200182810382526029815260200180620046666029913960400191505060405180910390fd5b604080516060810182528481526001602080830182905282840191909152600160a060020a038516600090815260068252929092208151805192939192620001ab928492019062000267565b5060208201516001918201805460409094015115156101000261ff001992151560ff199095169490941791909116929092179091556008805491820181556000527ff3f7a9fe364faab93b216da50a3214154f22a0a2b415b23a84c8169e8b636ee3018054600160a060020a03938416600160a060020a03199182161790915560048054929093169116179055506200030c9050565b600160a060020a0316600090815260066020526040902060010154610100900460ff1690565b828054600181600116156101000203166002900490600052602060002090601f016020900481019282601f10620002aa57805160ff1916838001178555620002da565b82800160010185558215620002da579182015b82811115620002da578251825591602001919060010190620002bd565b50620002e8929150620002ec565b5090565b6200030991905b80821115620002e85760008155600101620002f3565b90565b61434a806200031c6000396000f3fe60806040523480156200001157600080fd5b506004361062000254576000357c01000000000000000000000000000000000000000000000000000000009004806381dca05d1162000152578063c214e5e511620000da578063e2c79b0b11620000a4578063e2c79b0b1462000a47578063e73db9e41462000a70578063e79e55b11462000a99578063ebc87d0f1462000ac2578063ff2fa5c01462000af15762000254565b8063c214e5e51462000884578063c30b9ab9146200093b578063d44f259814620009f5578063db80ec931462000a1e5762000254565b8063a75881e1116200011c578063a75881e11462000757578063ae23c07d1462000761578063bbaf053f14620007ac578063be7ddea614620008645762000254565b806381dca05d14620006db57806387f473ba14620006e55780639201de55146200070e5780639a43aa98146200072e5762000254565b80635092b02a11620001e257806367db427911620001ac57806367db4279146200057c57806370856b2314620006255780637d05ce6814620006a75780637dbe8b7014620006c75780637e25682014620006d15762000254565b80635092b02a14620003c7578063580a8214146200047b5780635848693f14620004a457806364efb22b14620004cd5762000254565b80632459639c11620002245780632459639c146200030757806341c0e1b5146200033057806342110a82146200033a5780634301a3a8146200036b5762000254565b80626e16541462000259578063061dff9a146200029557806306a0337914620002c0578063219e156e14620002fd575b600080fd5b62000279600480360360208110156200027157600080fd5b503562000c24565b60408051600160a060020a039092168252519081900360200190f35b620002be60048036036020811015620002ad57600080fd5b5035600160a060020a031662000c4d565b005b620002e960048036036020811015620002d857600080fd5b5035600160a060020a031662000cb2565b604080519115158252519081900360200190f35b6200027962000cd7565b620002be600480360360208110156200031f57600080fd5b5035600160a060020a031662000ce6565b620002be62000eed565b620002be600480360360408110156200035257600080fd5b50600160a060020a038135811691602001351662000ef0565b620003756200106b565b60408051602080825283518183015283519192839290830191858101910280838360005b83811015620003b357818101518382015260200162000399565b505050509050019250505060405180910390f35b620002be60048036036040811015620003df57600080fd5b810190602081018135640100000000811115620003fb57600080fd5b8201836020820111156200040e57600080fd5b803590602001918460208302840111640100000000831117156200043157600080fd5b91908080602002602001604051908101604052809392919081815260200183836020028082843760009201919091525092955050509035600160a060020a03169150620010d09050565b620002e9600480360360208110156200049357600080fd5b5035600160a060020a0316620012ac565b620002be60048036036020811015620004bc57600080fd5b5035600160a060020a0316620012ca565b620004f660048036036020811015620004e557600080fd5b5035600160a060020a0316620012ec565b604051808060200183151515158152602001828103825284818151815260200191508051906020019080838360005b838110156200053f57818101518382015260200162000525565b50505050905090810190601f1680156200056d5780820380516001836020036101000a031916815260200191505b50935050505060405180910390f35b620002be600480360360208110156200059457600080fd5b810190602081018135640100000000811115620005b057600080fd5b820183602082011115620005c357600080fd5b80359060200191846020830284011164010000000083111715620005e657600080fd5b919080806020026020016040519081016040528093929190818152602001838360200280828437600092019190915250929550620013c4945050505050565b6200062f62001405565b6040805160208082528351818301528351919283929083019185019080838360005b838110156200066b57818101518382015260200162000651565b50505050905090810190601f168015620006995780820380516001836020036101000a031916815260200191505b509250505060405180910390f35b6200027960048036036020811015620006bf57600080fd5b503562001493565b62000375620014a2565b6200027962001504565b6200062f62001513565b620002e960048036036020811015620006fd57600080fd5b5035600160a060020a0316620015a2565b6200062f600480360360208110156200072657600080fd5b5035620015b7565b620002e9600480360360208110156200074657600080fd5b5035600160a060020a031662001755565b620002796200177b565b6200078a600480360360208110156200077957600080fd5b5035600160a060020a03166200178a565b6040805193151584529115156020840152151582820152519081900360600190f35b620002be60048036036060811015620007c457600080fd5b813591602081013591810190606081016040820135640100000000811115620007ec57600080fd5b820183602082011115620007ff57600080fd5b803590602001918460018302840111640100000000831117156200082257600080fd5b91908080601f016020809104026020016040519081016040528093929190818152602001838380828437600092019190915250929550620017b2945050505050565b62000279600480360360208110156200087c57600080fd5b503562001a14565b620002be600480360360408110156200089c57600080fd5b810190602081018135640100000000811115620008b857600080fd5b820183602082011115620008cb57600080fd5b80359060200191846001830284011164010000000083111715620008ee57600080fd5b91908080601f01602080910402602001604051908101604052809392919081815260200183838082843760009201919091525092955050509035600160a060020a0316915062001a239050565b62000964600480360360208110156200095357600080fd5b5035600160a060020a031662001bf4565b60405180806020018415151515815260200183151515158152602001828103825285818151815260200191508051906020019080838360005b83811015620009b75781810151838201526020016200099d565b50505050905090810190601f168015620009e55780820380516001836020036101000a031916815260200191505b5094505050505060405180910390f35b620002e96004803603602081101562000a0d57600080fd5b5035600160a060020a031662001cab565b620003756004803603602081101562000a3657600080fd5b5035600160a060020a031662001ccc565b620002be6004803603602081101562000a5f57600080fd5b5035600160a060020a031662001d4d565b620002be6004803603602081101562000a8857600080fd5b5035600160a060020a031662001e35565b620002be6004803603602081101562000ab157600080fd5b5035600160a060020a031662001ee1565b620002be6004803603604081101562000ada57600080fd5b50600160a060020a03813516906020013562002087565b620002be6004803603604081101562000b0957600080fd5b81019060208101813564010000000081111562000b2557600080fd5b82018360208201111562000b3857600080fd5b8035906020019184600183028401116401000000008311171562000b5b57600080fd5b91908080601f016020809104026020016040519081016040528093929190818152602001838380828437600092019190915250929594936020810193503591505064010000000081111562000baf57600080fd5b82018360208201111562000bc257600080fd5b8035906020019184602083028401116401000000008311171562000be557600080fd5b91908080602002602001604051908101604052809392919081815260200183836020028082843760009201919091525092955062002285945050505050565b600980548290811062000c3357fe5b600091825260209091200154600160a060020a0316905081565b62000c588162000cb2565b151562000caf576040805160e560020a62461bcd02815260206004820152601260248201527f417070726f76616c206e6f7420666f756e640000000000000000000000000000604482015290519081900360640190fd5b50565b600160a060020a03811660009081526020819052604090206003015460ff165b919050565b600354600160a060020a031681565b3360009081526020819052604090205460a060020a900460ff161562000d415760405160e560020a62461bcd028152600401808060200182810382526045815260200180620042b16045913960600191505060405180910390fd5b62000d4c3362000cb2565b1562000d8d5760405160e560020a62461bcd0281526004018080602001828103825260298152602001806200422b6029913960400191505060405180910390fd5b62000d97620024aa565b3380825260016020808401828152604080518082018252601481527f766f746572417070726f76616c5265717565737400000000000000000000000081850152818701908152600160a060020a0388811660a089015260808801869052600096875286855291909520865181549351151560a060020a0260a060020a60ff021991909316600160a060020a031990941693909317929092161781559251805185949362000e4a93908501920190620024e1565b506060820151805162000e6891600284019160209091019062002566565b5060808201516003909101805460a090930151600160a060020a03166101000274ffffffffffffffffffffffffffffffffffffffff001992151560ff1990941693909317919091169190911790556040805133815290517f62db2a37c394b9a845cfefd9624c1c41185d89a3ea9790c7ccde238ecdc6302f9181900360200190a15050565b33ff5b8062000efc8162001755565b151562000f53576040805160e560020a62461bcd02815260206004820152601760248201527f43616c6c6572206973206e6f7420616e2061646d696e21000000000000000000604482015290519081900360640190fd5b8162000f5f8162001cab565b151562000fa15760405160e560020a62461bcd028152600401808060200182810382526031815260200180620042806031913960400191505060405180910390fd5b62000fac84620012ac565b1562000fed5760405160e560020a62461bcd02815260040180806020018281038252602c81526020018062004254602c913960400191505060405180910390fd5b505060408051602080820183526001808352600160a060020a0395909516600081815260059092529281209151825460ff19169015151790915560098054948501815590527f6e1540171b6c0c960b71a7020d9f60077f6af931a8bbf590da0223dacf75c7af9092018054600160a060020a03191690921790915550565b60606008805480602002602001604051908101604052809291908181526020018280548015620010c557602002820191906000526020600020905b8154600160a060020a03168152600190910190602001808311620010a6575b505050505090505b90565b3360009081526020819052604090205460a060020a900460ff16156200112b5760405160e560020a62461bcd028152600401808060200182810382526045815260200180620042b16045913960600191505060405180910390fd5b620011363362000cb2565b15620011775760405160e560020a62461bcd0281526004018080602001828103825260298152602001806200422b6029913960400191505060405180910390fd5b62001181620024aa565b3380825260016020808401828152604080518082018252601881527f63616e646964617465417070726f76616c5265717565737400000000000000008185015281870190815260608701899052600160a060020a0388811660a089015260808801869052600096875286855291909520865181549351151560a060020a0260a060020a60ff021991909316600160a060020a03199094169390931792909216178155925180518594936200123b93908501920190620024e1565b50606082015180516200125991600284019160209091019062002566565b5060808201516003909101805460a090930151600160a060020a03166101000274ffffffffffffffffffffffffffffffffffffffff001992151560ff199094169390931791909116919091179055505050565b600160a060020a031660009081526005602052604090205460ff1690565b60048054600160a060020a031916600160a060020a0392909216919091179055565b60606000620012fb8362001755565b15620013bf57600160a060020a03831660009081526006602090815260409182902060018082015482548551600261010094831615949094026000190190911692909204601f8101859004850283018501909552848252919360ff9092169290918491830182828015620013b35780601f106200138757610100808354040283529160200191620013b3565b820191906000526020600020905b8154815290600101906020018083116200139557829003601f168201915b50505050509150915091505b915091565b62000caf6040805190810160405280601481526020017f61646d696e417070726f76616c526571756573740000000000000000000000008152508262002285565b60028054604080516020601f6000196101006001871615020190941685900493840181900481028201810190925282815260609390929091830182828015620010c55780601f106200146657610100808354040283529160200191620010c5565b820191906000526020600020905b8154815290600101906020018083116200147457509395945050505050565b600180548290811062000c3357fe5b60606001805480602002602001604051908101604052809291908181526020018280548015620010c557602002820191906000526020600020908154600160a060020a03168152600190910190602001808311620010a6575050505050905090565b600454600160a060020a031681565b6002805460408051602060018416156101000260001901909316849004601f810184900484028201840190925281815292918301828280156200159a5780601f106200156e576101008083540402835291602001916200159a565b820191906000526020600020905b8154815290600101906020018083116200157c57829003601f168201915b505050505081565b60056020526000908152604090205460ff1681565b6040805160208082528183019092526060918291906020820181803883390190505090506000805b60208110156200166c576008810260020a85027fff0000000000000000000000000000000000000000000000000000000000000081161562001662578084848151811015156200162b57fe5b9060200101907effffffffffffffffffffffffffffffffffffffffffffffffffffffffffffff1916908160001a9053506001909201915b50600101620015df565b506060816040519080825280601f01601f1916602001820160405280156200169b576020820181803883390190505b50905060005b828110156200174c578381815181101515620016b957fe5b9060200101517f010000000000000000000000000000000000000000000000000000000000000090047f01000000000000000000000000000000000000000000000000000000000000000282828151811015156200171357fe5b9060200101907effffffffffffffffffffffffffffffffffffffffffffffffffffffffffffff1916908160001a905350600101620016a1565b50949350505050565b600160a060020a0316600090815260066020526040902060010154610100900460ff1690565b600454600160a060020a031690565b60076020526000908152604090205460ff808216916101008104821691620100009091041683565b60045460405130913391600160a060020a0390911690620017d390620025a3565b600160a060020a03938416815291831660208301529091166040808301919091525190819003606001906000f08015801562001813573d6000803e3d6000fd5b5060038054600160a060020a031916600160a060020a03928316179081905560048054604080517f983b2d5600000000000000000000000000000000000000000000000000000000815293851692840192909252905192169163983b2d569160248082019260009290919082900301818387803b1580156200189457600080fd5b505af1158015620018a9573d6000803e3d6000fd5b505060035460045460405160009450309350600160a060020a039283169290911690859042908890620018dc90620025b1565b8087600160a060020a0316600160a060020a0316815260200186600160a060020a0316600160a060020a0316815260200185600160a060020a0316600160a060020a0316815260200180602001848152602001838152602001828103825285818151815260200191508051906020019080838360005b838110156200196c57818101518382015260200162001952565b50505050905090810190601f1680156200199a5780820380516001836020036101000a031916815260200191505b50975050505050505050604051809103906000f080158015620019c1573d6000803e3d6000fd5b50905080620019d1813362000ef0565b60408051600160a060020a038316815290517f9c066cbf9c141c80563a3a3ee9224db62b0efe7ab2f1b3afc15e1c094e12b5e89181900360200190a15050505050565b600880548290811062000c3357fe5b3362001a2f8162001755565b151562001a86576040805160e560020a62461bcd02815260206004820152601760248201527f43616c6c6572206973206e6f7420616e2061646d696e21000000000000000000604482015290519081900360640190fd5b3362001a928162001cab565b151562001ad45760405160e560020a62461bcd028152600401808060200182810382526031815260200180620042806031913960400191505060405180910390fd5b62001adf8362001755565b1562001b205760405160e560020a62461bcd028152600401808060200182810382526029815260200180620042f66029913960400191505060405180910390fd5b604080516060810182528581526001602080830182905282840191909152600160a060020a03861660009081526006825292909220815180519293919262001b6c9284920190620024e1565b5060208201516001918201805460409094015115156101000261ff001992151560ff199095169490941791909116929092179091556008805491820181556000527ff3f7a9fe364faab93b216da50a3214154f22a0a2b415b23a84c8169e8b636ee3018054600160a060020a03909416600160a060020a031990941693909317909255505050565b60066020908152600091825260409182902080548351601f6002600019610100600186161502019093169290920491820184900484028101840190945280845290929183919083018282801562001c8f5780601f1062001c635761010080835404028352916020019162001c8f565b820191906000526020600020905b81548152906001019060200180831162001c7157829003601f168201915b5050506001909301549192505060ff8082169161010090041683565b600160a060020a031660009081526006602052604090206001015460ff1690565b606062001cd98262000cb2565b1562000cd257600160a060020a038216600090815260208181526040918290206002018054835181840281018401909452808452909183018282801562001d4057602002820191906000526020600020905b81548152602001906001019080831162001d2b575b5050505050905062000cd2565b62001d588162001755565b151562001daf576040805160e560020a62461bcd02815260206004820152601860248201527f41646d696e2061646472657373206e6f7420666f756e64210000000000000000604482015290519081900360640190fd5b62001dba8162001cab565b151562001e11576040805160e560020a62461bcd02815260206004820152601e60248201527f41646d696e20697320616c726561647920756e617574686f7269736564210000604482015290519081900360640190fd5b600160a060020a03166000908152600660205260409020600101805460ff19169055565b62001e408162000c4d565b606062001e4d8262001ccc565b9050606062001e7582600081518110151562001e6557fe5b90602001906020020151620015b7565b905062001e83818462001a23565b600160a060020a03831660008181526020818152604091829020805460a060020a60ff0219169055815192835290517f39e7d4b9ba48f55a740a5192809dbc498fa12724c030b37dab126a3f6774c0f39281900390910190a1505050565b62001eec8162000c4d565b606062001ef98262001ccc565b9050606062001f1182600081518110151562001e6557fe5b600160a060020a038085166000818152602081815260408083206003015490517f98a60220000000000000000000000000000000000000000000000000000000008152336004820181815260448301969096526060602483019081528851606484015288519899506101009093049096169687966398a602209690958a958d9592949293608490930192908701918190849084905b8381101562001fc057818101518382015260200162001fa6565b50505050905090810190601f16801562001fee5780820380516001836020036101000a031916815260200191505b50945050505050600060405180830381600087803b1580156200201057600080fd5b505af115801562002025573d6000803e3d6000fd5b505050600160a060020a03851660008181526020818152604091829020805460a060020a60ff0219169055815192835290517ff1a128dd92a8510984a1388bab70766187b49a480e7e70a4e9d77e05adc85d629350918290030190a150505050565b33620020938162001755565b1515620020ea576040805160e560020a62461bcd02815260206004820152601760248201527f43616c6c6572206973206e6f7420616e2061646d696e21000000000000000000604482015290519081900360640190fd5b620020f58362000c4d565b600160a060020a03808416600081815260208190526040808220600390810154905482517fb01e25900000000000000000000000000000000000000000000000000000000081526004810195909552602485018890523360448601529151610100909104851694919091169263b01e259092606480830193919282900301818387803b1580156200218557600080fd5b505af11580156200219a573d6000803e3d6000fd5b5050604080517e9808e6000000000000000000000000000000000000000000000000000000008152600160a060020a0388811660048301523360248301526044820188905291519185169350629808e6925060648082019260009290919082900301818387803b1580156200220e57600080fd5b505af115801562002223573d6000803e3d6000fd5b505050600160a060020a03851660008181526020818152604091829020805460a060020a60ff0219169055815192835290517f1c5de580841f59402d3b19f05d1c74a2d754db2f2aaff0648316bf86a18669469350918290030190a150505050565b3360008181526020819052604090205460a060020a900460ff1615620022e05760405160e560020a62461bcd028152600401808060200182810382526045815260200180620042b16045913960600191505060405180910390fd5b3360008181526020819052604090206003015460ff1615620023375760405160e560020a62461bcd0281526004018080602001828103825260298152602001806200422b6029913960400191505060405180910390fd5b62002341620024aa565b338082526001602080840182815260408086018a8152606087018a90526080870185905260009586528584529420855181549251151560a060020a0260a060020a60ff0219600160a060020a0392909216600160a060020a0319909416939093171691909117815592518051859493620023c193908501920190620024e1565b5060608201518051620023df91600284019160209091019062002566565b5060808201516003909101805460a090930151600160a060020a03166101000274ffffffffffffffffffffffffffffffffffffffff001992151560ff1990941693909317919091169190911790556001805480820182556000919091527fb10e2d527612073b26eecdfd717e6a320cf44b4afac2b0732d9fcbe2b7fa0cf6018054600160a060020a0319163390811790915560408051918252517f62db2a37c394b9a845cfefd9624c1c41185d89a3ea9790c7ccde238ecdc6302f9181900360200190a15050505050565b6040805160c0810182526000808252602082018190526060928201839052828201929092526080810182905260a081019190915290565b828054600181600116156101000203166002900490600052602060002090601f016020900481019282601f106200252457805160ff191683800117855562002554565b8280016001018555821562002554579182015b828111156200255457825182559160200191906001019062002537565b5062002562929150620025bf565b5090565b8280548282559060005260206000209081019282156200255457916020028201828111156200255457825182559160200191906001019062002537565b6109b080620025dd83390190565b61129e8062002f8d83390190565b620010cd91905b80821115620025625760008155600101620025c656fe608060405234801561001057600080fd5b506040516060806109b08339810180604052606081101561003057600080fd5b5080516020820151604090920151600160008190559192918282600160a060020a03821615156100ab576040517f08c379a000000000000000000000000000000000000000000000000000000000815260040180806020018281038252602581526020018061098b6025913960400191505060405180910390fd5b600160a060020a038116151561010c576040517f08c379a00000000000000000000000000000000000000000000000000000000081526004018080602001828103825260248152602001806109676024913960400191505060405180910390fd5b60039290925560028054600160a060020a0319908116600160a060020a03938416179091556001805482169383169390931790925560058054909216941693909317909255506108049050806101636000396000f3fe608060405260043610610071577c010000000000000000000000000000000000000000000000000000000060003504632c4e722e811461007c5780634042b66f146100a3578063521eb273146100b8578063b01e2590146100e9578063ec8ac4d81461012c578063fc0c546a14610152575b61007a33610167565b005b34801561008857600080fd5b5061009161026e565b60408051918252519081900360200190f35b3480156100af57600080fd5b50610091610274565b3480156100c457600080fd5b506100cd61027a565b60408051600160a060020a039092168252519081900360200190f35b3480156100f557600080fd5b5061007a6004803603606081101561010c57600080fd5b50600160a060020a03813581169160208101359160409091013516610289565b61007a6004803603602081101561014257600080fd5b5035600160a060020a0316610167565b34801561015e57600080fd5b506100cd610440565b60008054600101908190553461017d838261044f565b6000610188826104f0565b60045490915061019e908363ffffffff61050d16565b6004556101ab8482610571565b60408051838152602081018390528151600160a060020a0387169233927f6faf93231a456e552dbc9961f58d9713ee4f2e69d15f1975b050ef0911053a7b929081900390910190a36101fd848361026a565b61020561057b565b61020f848361026a565b5050600054811461026a576040805160e560020a62461bcd02815260206004820152601f60248201527f5265656e7472616e637947756172643a207265656e7472616e742063616c6c00604482015290519081900360640190fd5b5050565b60035490565b60045490565b600254600160a060020a031690565b600554604080517f9a43aa98000000000000000000000000000000000000000000000000000000008152600160a060020a038085166004830152915184939290921691639a43aa9891602480820192602092909190829003018186803b1580156102f257600080fd5b505afa158015610306573d6000803e3d6000fd5b505050506040513d602081101561031c57600080fd5b5051151561035e5760405160e560020a62461bcd02815260040180806020018281038252603181526020018061073e6031913960400191505060405180910390fd5b600554604080517fd44f2598000000000000000000000000000000000000000000000000000000008152600160a060020a0384811660048301529151919092169163d44f2598916024808301926020929190829003018186803b1580156103c457600080fd5b505afa1580156103d8573d6000803e3d6000fd5b505050506040513d60208110156103ee57600080fd5b505115156104305760405160e560020a62461bcd0281526004018080602001828103825260408152602001806107996040913960400191505060405180910390fd5b61043a84846105b7565b50505050565b600154600160a060020a031690565b600160a060020a03821615156104995760405160e560020a62461bcd02815260040180806020018281038252602a81526020018061076f602a913960400191505060405180910390fd5b80151561026a576040805160e560020a62461bcd02815260206004820152601960248201527f43726f776473616c653a20776569416d6f756e74206973203000000000000000604482015290519081900360640190fd5b6000610507600354836106bc90919063ffffffff16565b92915050565b60008282018381101561056a576040805160e560020a62461bcd02815260206004820152601b60248201527f536166654d6174683a206164646974696f6e206f766572666c6f770000000000604482015290519081900360640190fd5b9392505050565b61026a82826105b7565b600254604051600160a060020a03909116903480156108fc02916000818181858888f193505050501580156105b4573d6000803e3d6000fd5b50565b6105bf610440565b600160a060020a03166340c10f1983836040518363ffffffff167c01000000000000000000000000000000000000000000000000000000000281526004018083600160a060020a0316600160a060020a0316815260200182815260200192505050602060405180830381600087803b15801561063a57600080fd5b505af115801561064e573d6000803e3d6000fd5b505050506040513d602081101561066457600080fd5b5051151561026a576040805160e560020a62461bcd02815260206004820152601f60248201527f4d696e74656443726f776473616c653a206d696e74696e67206661696c656400604482015290519081900360640190fd5b60008215156106cd57506000610507565b8282028284828115156106dc57fe5b041461056a5760405160e560020a62461bcd02815260040180806020018281038252602181526020018061071d6021913960400191505060405180910390fdfe536166654d6174683a206d756c7469706c69636174696f6e206f766572666c6f77566f74696e67546f6b656e417574686f7269736174696f6e3a2043616c6c6572206973206e6f7420616e2061646d696e2143726f776473616c653a2062656e656669636961727920697320746865207a65726f2061646472657373566f74696e67546f6b656e417574686f7269736174696f6e3a2043616c6c657220697320616e2061646d696e20627574206e6f7420617574686f726973656421a165627a7a723058200612cd181cb25ceb0b5dd0bc801df70ca3a855e9b524a47b78b40101d04e0677002943726f776473616c653a20746f6b656e20697320746865207a65726f206164647265737343726f776473616c653a2077616c6c657420697320746865207a65726f206164647265737360806040523480156200001157600080fd5b506040516200129e3803806200129e833981018060405260c08110156200003757600080fd5b81516020830151604084015160608501805193959294919391830192916401000000008111156200006757600080fd5b820160208101848111156200007b57600080fd5b81516401000000008111828201871017156200009657600080fd5b505060208281015160409093015160038054600160a060020a038a8116600160a060020a031992831617909255600480548c84169216919091179055600280549189166101000261010060a860020a03199092169190911760ff1916905582519295509293506200010d9160059186019062000122565b5060009190915560015550620001c792505050565b828054600181600116156101000203166002900490600052602060002090601f016020900481019282601f106200016557805160ff191683800117855562000195565b8280016001018555821562000195579182015b828111156200019557825182559160200191906001019062000178565b50620001a3929150620001a7565b5090565b620001c491905b80821115620001a35760008155600101620001ae565b90565b6110c780620001d76000396000f3fe608060405234801561001057600080fd5b506004361061015e576000357c0100000000000000000000000000000000000000000000000000000000900480636c4e4731116100d5578063a4d8222511610099578063a4d8222514610546578063ca217a4b1461054e578063cde419a414610556578063cfa84dfe1461055e578063e9d2b91414610566578063f8eb29cb1461058c5761015e565b80636c4e47311461041a5780638155f7361461042257806382b2e2571461042a578063953ea0ea1461044457806398a60220146104855761015e565b80632a0e1b4f116101275780632a0e1b4f146102ba578063331502d5146102c25780633effd185146102ee5780634f5a7273146103975780635eefe5be146103d15780635f74bbde146103ee5761015e565b80629808e6146101635780630a16e30b1461019b5780631b95f76b146101f35780631e0efcf3146101fb578063240bbd8c14610296575b600080fd5b6101996004803603606081101561017957600080fd5b50600160a060020a038135811691602081013590911690604001356105a9565b005b6101a3610772565b60408051602080825283518183015283519192839290830191858101910280838360005b838110156101df5781810151838201526020016101c7565b505050509050019250505060405180910390f35b6101996107d5565b6102216004803603602081101561021157600080fd5b5035600160a060020a03166107eb565b6040805160208082528351818301528351919283929083019185019080838360005b8381101561025b578181015183820152602001610243565b50505050905090810190601f1680156102885780820380516001836020036101000a031916815260200191505b509250505060405180910390f35b61029e610896565b60408051600160a060020a039092168252519081900360200190f35b61029e6108a5565b6102ca6108b4565b604051808260028111156102da57fe5b60ff16815260200191505060405180910390f35b6103146004803603602081101561030457600080fd5b5035600160a060020a03166108bd565b604051808060200183151515158152602001828103825284818151815260200191508051906020019080838360005b8381101561035b578181015183820152602001610343565b50505050905090810190601f1680156103885780820380516001836020036101000a031916815260200191505b50935050505060405180910390f35b6103bd600480360360208110156103ad57600080fd5b5035600160a060020a0316610967565b604080519115158252519081900360200190f35b61029e600480360360208110156103e757600080fd5b5035610985565b6101996004803603604081101561040457600080fd5b50600160a060020a0381351690602001356109ad565b61029e610aec565b6101a3610afb565b610432610b5b565b60408051918252519081900360200190f35b61046a6004803603602081101561045a57600080fd5b5035600160a060020a0316610bf5565b60408051921515835260208301919091528051918290030190f35b6101996004803603606081101561049b57600080fd5b600160a060020a0382351691908101906040810160208201356401000000008111156104c657600080fd5b8201836020820111156104d857600080fd5b803590602001918460018302840111640100000000831117156104fa57600080fd5b91908080601f01602080910402602001604051908101604052809392919081815260200183838082843760009201919091525092955050509035600160a060020a03169150610c149050565b61029e610d18565b61029e610d2c565b610199610d3b565b610221610d55565b6103bd6004803603602081101561057c57600080fd5b5035600160a060020a0316610de3565b61029e600480360360208110156105a257600080fd5b5035610e04565b60048054604080517f9a43aa98000000000000000000000000000000000000000000000000000000008152600160a060020a03808716948201949094529051859390921691639a43aa9891602480820192602092909190829003018186803b15801561061457600080fd5b505afa158015610628573d6000803e3d6000fd5b505050506040513d602081101561063e57600080fd5b50511515610696576040805160e560020a62461bcd02815260206004820152601760248201527f43616c6c6572206973206e6f7420616e2061646d696e21000000000000000000604482015290519081900360640190fd5b61069f84610967565b156106de5760405160e560020a62461bcd0281526004018080602001828103825260348152602001806110686034913960400191505060405180910390fd5b5060408051808201825260018082526020808301948552600160a060020a0396909616600081815260099097529286209151825460ff1916901515178255925190830155600a805492830181559093527fc65a7bb8d6351c1cf70c95a316cc6a92839c986682d98bc35f958f4883f9d2a801805473ffffffffffffffffffffffffffffffffffffffff191690921790915550565b6060600a8054806020026020016040519081016040528092919081815260200182805480156107ca57602002820191906000526020600020905b8154600160a060020a031681526001909101906020018083116107ac575b505050505090505b90565b600280546001919060ff191682805b0217905550565b600160a060020a03811660009081526007602090815260409182902080548351601f600260001961010060018616150201909316929092049182018490048402810184019094528084526060939283018282801561088a5780601f1061085f5761010080835404028352916020019161088a565b820191906000526020600020905b81548152906001019060200180831161086d57829003601f168201915b50505050509050919050565b600654600160a060020a031681565b600454600160a060020a031681565b60025460ff1681565b60076020908152600091825260409182902080548351601f600260001961010060018616150201909316929092049182018490048402810184019094528084529092918391908301828280156109545780601f1061092957610100808354040283529160200191610954565b820191906000526020600020905b81548152906001019060200180831161093757829003601f168201915b5050506001909301549192505060ff1682565b600160a060020a031660009081526009602052604090205460ff1690565b600880548290811061099357fe5b600091825260209091200154600160a060020a0316905081565b336109b781610967565b1515610a0d576040805160e560020a62461bcd02815260206004820152601a60248201527f566f74657220616464726573732069736e27742073746f726564000000000000604482015290519081900360640190fd5b610a15610b5b565b1515610a555760405160e560020a62461bcd0281526004018080602001828103825260258152602001806110436025913960400191505060405180910390fd5b600254604080517fefa5d431000000000000000000000000000000000000000000000000000000008152336004820152600160a060020a0386811660248301526044820186905291516101009093049091169163efa5d4319160648082019260009290919082900301818387803b158015610acf57600080fd5b505af1158015610ae3573d6000803e3d6000fd5b50505050505050565b600654600160a060020a031690565b606060088054806020026020016040519081016040528092919081815260200182805480156107ca57602002820191906000526020600020908154600160a060020a031681526001909101906020018083116107ac575050505050905090565b600254604080517f70a0823100000000000000000000000000000000000000000000000000000000815233600482015290516000926101009004600160a060020a0316916370a08231916024808301926020929190829003018186803b158015610bc457600080fd5b505afa158015610bd8573d6000803e3d6000fd5b505050506040513d6020811015610bee57600080fd5b5051905090565b6009602052600090815260409020805460019091015460ff9091169082565b610c1d81610de3565b15610c5c5760405160e560020a62461bcd0281526004018080602001828103825260348152602001806110686034913960400191505060405180910390fd5b6040805180820182528381526001602080830191909152600160a060020a038416600090815260078252929092208151805192939192610c9f9284920190610faa565b50602091909101516001918201805460ff19169115159190911790556008805491820181556000527ff3f7a9fe364faab93b216da50a3214154f22a0a2b415b23a84c8169e8b636ee301805473ffffffffffffffffffffffffffffffffffffffff1916600160a060020a03929092169190911790555050565b6002546101009004600160a060020a031681565b600354600160a060020a031681565b610d43610e12565b60028054819060ff19166001826107e4565b6005805460408051602060026001851615610100026000190190941693909304601f81018490048402820184019092528181529291830182828015610ddb5780601f10610db057610100808354040283529160200191610ddb565b820191906000526020600020905b815481529060010190602001808311610dbe57829003601f168201915b505050505081565b600160a060020a031660009081526007602052604090206001015460ff1690565b600a80548290811061099357fe5b600080805b600854811015610fa5576008805482908110610e2f57fe5b60009182526020918290200154600254604080517f70a08231000000000000000000000000000000000000000000000000000000008152600160a060020a03938416600482018190529151919650610100909204909216926370a0823192602480840193829003018186803b158015610ea757600080fd5b505afa158015610ebb573d6000803e3d6000fd5b505050506040513d6020811015610ed157600080fd5b5051831015610f9d57600254604080517f70a08231000000000000000000000000000000000000000000000000000000008152600160a060020a0385811660048301529151610100909304909116916370a0823191602480820192602092909190829003018186803b158015610f4657600080fd5b505afa158015610f5a573d6000803e3d6000fd5b505050506040513d6020811015610f7057600080fd5b50516006805473ffffffffffffffffffffffffffffffffffffffff1916600160a060020a03851617905592505b600101610e17565b505050565b828054600181600116156101000203166002900490600052602060002090601f016020900481019282601f10610feb57805160ff1916838001178555611018565b82800160010185558215611018579182015b82811115611018578251825591602001919060010190610ffd565b50611024929150611028565b5090565b6107d291905b80821115611024576000815560010161102e56fe566f74657220646f65736e2774206861766520616e7920566f74696e6720546f6b656e7321546869732063616e6469646174654164647265737320616464726573732068617320616c7265616479206265656e206164646564a165627a7a723058209cbc3efc9cb98f90e9ed0c98efe0293de05e4755a15873c05c733678f3f4e03600295468697320617070726f76616c2068617320616c7265616479206265656e207375626d6974746564215468697320656c656374696f6e20616464726573732068617320616c7265616479206265656e20616464656443616c6c657220697320616e2061646d696e2c20627574206e6f742063757272656e746c7920617574686f726973656421596f75206861766520616e206f75747374616e64696e6720726571756573742c20706c65617365207761697420666f72207468617420746f2062652070726f636573736564546869732061646d696e20616464726573732068617320616c7265616479206265656e206164646564a165627a7a72305820f1f65323d49578c823399461b92c621d2466555ceb300aba68accbfe8e31c9010029546869732061646d696e20616464726573732068617320616c7265616479206265656e2061646465644f776e61626c653a206e6577206f776e657220697320746865207a65726f20616464726573735468697320617070726f76616c2068617320616c7265616479206265656e207375626d697474656421596f75206861766520616e206f75747374616e64696e6720726571756573742c20706c65617365207761697420666f72207468617420746f2062652070726f6365737365644f776e61626c653a2063616c6c6572206973206e6f7420746865206f776e65725468697320696e737469747574696f6e2068617320616c7265616479206265656e206164646564a165627a7a72305820b6c9d00f3f0c9166c69f5d19289ae2f399c2a8346937d4f9f7ed7ef9f7aa017e0029",
  "source": "pragma solidity ^0.5.3;\n\nimport \"openzeppelin-solidity/contracts/ownership/Ownable.sol\";\nimport \"./Institution.sol\";\nimport \"./ApprovalQueue.sol\";\nimport \"./VotingToken.sol\";\n\n\n// Name in progress - can possible be: ElectionFactory, though the current name indicates that this is the 'main entry point'.\n/** // TODO Change comments based on new functionality - keep notion of factory pattern. Also mention that mappings adhere to storage patters found at: https://ethereum.stackexchange.com/questions/13167/are-there-well-solved-and-simple-storage-patterns-for-solidity\n * A contract which removes the requirement of university officials deploying their own instances of Election contracts.\n * This is achieved using a Smart Contract Factory pattern, in which new Election contracts are created and deployed from within this\n * contract.  This contract is interacted with on a \"Purchase Election\" screen, where university officials/customers can create and customise\n * a new election. TODO: This contract will surely create the Election admin accounts, but should it create them at the beggining of a purchase journey, and then\n * for the Election to be fully created, the customer will have to manually fund their address (or Voting System) with Ether? Or should it be for the purposes of this project, if a university\n * has access to this smart contract, then we can assume they've paid me with a debit card, or something, and I've authorised an account creation and added it to a list of approved addresses?  \n*/\ncontract UniversityVoting is Ownable, ApprovalQueue {\n\n    // The payableOwner inherits from Open Zeppelin's Ownable contract\n    // which is the deployer of the contract, i.e. the developer.\n    // Should this contract need to be self-destructed, the developer will recieve all funds.\n    address payable public payableOwner;\n\n    VotingToken deployedVotingToken;\n\n    // Enable the prevention of duplicate addresses caused by\n    // unforseen, errant client requests.\n    struct InstitutionAddressStruct {\n        bool isAddress;\n    }\n\n    constructor () public {\n        payableOwner = address(uint160(owner()));\n    }\n\n    // Store Institutions addresses so they can be accessed without iteration. This\n    // limits gas costs. This also means that we can efficiently keep track of whether\n    // or not an address is stored, because the Struct that is mapped to the address contains\n    // the flag isAddress that can evaulated to see if an address exists.\n    mapping(address => InstitutionAddressStruct) public _addressStructMapping;\n\n    // Store Institution addresses in dynamically sized array so the complete state, including\n    // the total number of Institutions stored can be quickly accessed.\n    address[] public _addressArray;\n\n    // Emit an event on Institution contract creation.\n    // TODO this can be in the superclass I think?\n    event NewInstitutionApproved(address institution);\n\n    function approveInstitutionRequest(address submittingAddress) public onlyOwner {\n        super.approveRequest(submittingAddress);\n\n        bytes32[] memory data = getRequestData(submittingAddress);\n        string memory institutionName;\n        string memory adminName;\n        institutionName = super.bytes32ToString(data[0]);\n        adminName = super.bytes32ToString(data[1]);\n\n        Institution institution = new Institution(institutionName, adminName, submittingAddress, deployedVotingToken);\n        // Get the address of the newly created contract.\n        address contractAddress = (address(institution));\n        // Give the new required role to mint VotingTokens\n        VotingToken(deployedVotingToken).addMinter(contractAddress);\n        // Add information about the newly created contract so it can be accessed later.\n        storeInstitutionContractInfo(contractAddress);\n        // Emit the creation of the new Institution as an event.\n\n        // Set the request and state to not pending/initialised to allow admin to submit new requests.\n        ApprovalRequest storage completedRequest = _approvalRequestQueue[submittingAddress];\n        completedRequest.isPending = false;\n        completedRequest.isInitialised = false;\n\n        emit NewInstitutionApproved(contractAddress);\n       // return contractAddress;\n        // TODO add delete the approval from the mapping - but I might want to keep the data for the frontend.\n        // if a backend as in place, could store in a database.\n    }\n\n    /**\n     * Allows a prospective admin to submit the data for their new request. An ApprovalRequest is created and mapped\n     * to the approval queue.\n     */\n    function submitInstitutionApprovalRequest(bytes32[] memory requestData) public {\n        super.submitApprovalRequest(\"institutionApprovalRequest\", requestData);\n    }\n\n    /**\n     * Get the number of currently created Institutions\n     */\n    function getInstitutionsTotal() public view returns(uint total) {\n        return _addressArray.length;\n    }\n\n    function getInstitutionAddresses() public view returns (address[] memory) {\n        return _addressArray;\n    }\n\n    function getApprovalRequestsSuper() public view returns (address[] memory) {\n        return super.getApprovalRequestAddresses();\n    }\n\n    function getApprovalRequestsNative() public view returns (address[] memory) {\n        return _approvalRequestArray;\n    }\n\n    function storeInstitutionContractInfo(address institute) public {\n        require(!isInstitutionAddressStored(institute),\"This institution has already been added\");\n        // Add the address to not interable mapping to allow for instant access to the address.\n        _addressStructMapping[institute] = InstitutionAddressStruct(true);\n        // Also add address of newly created Institutions to dynamically sized array for quick access.\n        _addressArray.push(institute);\n        // New Institution created sucessfully so set the request to not pending.\n        _approvalRequestQueue[institute].isPending = false;\n    }\n\n    function isInstitutionAddressStored(address institute) public view returns(bool isStored) {\n        return _addressStructMapping[institute].isAddress;\n    }\n\n    function isApprovalStored(address adminAddress) public view returns(bool isStored) {\n        return _approvalRequestQueue[adminAddress].isInitialised;\n    }\n\n    function setVotingTokenAddress(VotingToken tokenAddress) public {\n        deployedVotingToken = tokenAddress;\n    }\n\n    function getVotingTokenAddress() public view returns (VotingToken) {\n        return deployedVotingToken;\n    }\n\n\n    /**\n     * Self-destruct this contract // TODO expand explanation.\n     * Kill() method taken and modified from: https://kalis.me/check-events-solidity-smart-contract-test-truffle/\n     */ \n    function kill() external onlyOwner {\n        selfdestruct(payableOwner);\n    } \n\n\n}",
  "sourcePath": "/Users/erdi/git/final-year-project/dapp-backend/contracts/UniversityVoting.sol",
  "compiler": {
    "name": "solc",
    "version": "0.5.3+commit.10d17f24.Emscripten.clang"
  },
  "schemaVersion": "3.0.11",
  "updatedAt": "2019-07-26T08:03:25.428Z",
  "devdoc": {
    "methods": {
      "approveRequest(address)": {
        "details": "inherriting contracts must override this based on their requirements."
      },
      "isOwner()": {
        "details": "Returns true if the caller is the current owner."
      },
      "owner()": {
        "details": "Returns the address of the current owner."
      },
      "renounceOwnership()": {
        "details": "Leaves the contract without owner. It will not be possible to call `onlyOwner` functions anymore. Can only be called by the current owner.     * > Note: Renouncing ownership will leave the contract without an owner, thereby removing any functionality that is only available to the owner."
      },
      "transferOwnership(address)": {
        "details": "Transfers ownership of the contract to a new account (`newOwner`). Can only be called by the current owner."
      }
    }
  },
  "userdoc": {
    "methods": {
      "bytes32ToString(bytes32)": {
        "notice": "Helper method to get data from a request Taken from https://ethereum.stackexchange.com/questions/29295/how-to-convert-a-bytes-to-string-in-solidity"
      },
      "getInstitutionsTotal()": {
        "notice": "Get the number of currently created Institutions"
      },
      "kill()": {
        "notice": "Self-destruct this contract // TODO expand explanation. Kill() method taken and modified from: https://kalis.me/check-events-solidity-smart-contract-test-truffle/"
      },
      "submitInstitutionApprovalRequest(bytes32[])": {
        "notice": "Allows a prospective admin to submit the data for their new request. An ApprovalRequest is created and mapped to the approval queue."
      }
    },
    "notice": "// TODO Change comments based on new functionality - keep notion of factory pattern. Also mention that mappings adhere to storage patters found at: https://ethereum.stackexchange.com/questions/13167/are-there-well-solved-and-simple-storage-patterns-for-solidity A contract which removes the requirement of university officials deploying their own instances of Election contracts. This is achieved using a Smart Contract Factory pattern, in which new Election contracts are created and deployed from within this contract.  This contract is interacted with on a \"Purchase Election\" screen, where university officials/customers can create and customise a new election. TODO: This contract will surely create the Election admin accounts, but should it create them at the beggining of a purchase journey, and then for the Election to be fully created, the customer will have to manually fund their address (or Voting System) with Ether? Or should it be for the purposes of this project, if a university has access to this smart contract, then we can assume they've paid me with a debit card, or something, and I've authorised an account creation and added it to a list of approved addresses?  "
  }
}