{
  "contractName": "VotingTokenAuthorisation",
  "abi": [
    {
      "constant": true,
      "inputs": [],
      "name": "rate",
      "outputs": [
        {
          "name": "",
          "type": "uint256"
        }
      ],
      "payable": false,
      "stateMutability": "view",
      "type": "function"
    },
    {
      "constant": true,
      "inputs": [],
      "name": "weiRaised",
      "outputs": [
        {
          "name": "",
          "type": "uint256"
        }
      ],
      "payable": false,
      "stateMutability": "view",
      "type": "function"
    },
    {
      "constant": true,
      "inputs": [],
      "name": "wallet",
      "outputs": [
        {
          "name": "",
          "type": "address"
        }
      ],
      "payable": false,
      "stateMutability": "view",
      "type": "function"
    },
    {
      "constant": false,
      "inputs": [
        {
          "name": "beneficiary",
          "type": "address"
        }
      ],
      "name": "buyTokens",
      "outputs": [],
      "payable": true,
      "stateMutability": "payable",
      "type": "function"
    },
    {
      "constant": true,
      "inputs": [],
      "name": "token",
      "outputs": [
        {
          "name": "",
          "type": "address"
        }
      ],
      "payable": false,
      "stateMutability": "view",
      "type": "function"
    },
    {
      "inputs": [
        {
          "name": "institution",
          "type": "address"
        },
        {
          "name": "admin",
          "type": "address"
        },
        {
          "name": "votingToken",
          "type": "address"
        }
      ],
      "payable": false,
      "stateMutability": "nonpayable",
      "type": "constructor"
    },
    {
      "payable": true,
      "stateMutability": "payable",
      "type": "fallback"
    },
    {
      "anonymous": false,
      "inputs": [
        {
          "indexed": true,
          "name": "purchaser",
          "type": "address"
        },
        {
          "indexed": true,
          "name": "beneficiary",
          "type": "address"
        },
        {
          "indexed": false,
          "name": "value",
          "type": "uint256"
        },
        {
          "indexed": false,
          "name": "amount",
          "type": "uint256"
        }
      ],
      "name": "TokensPurchased",
      "type": "event"
    },
    {
      "constant": false,
      "inputs": [
        {
          "name": "voter",
          "type": "address"
        },
        {
          "name": "tokenAmount",
          "type": "uint256"
        },
        {
          "name": "admin",
          "type": "address"
        }
      ],
      "name": "sendVotingToken",
      "outputs": [],
      "payable": false,
      "stateMutability": "nonpayable",
      "type": "function"
    }
  ],
  "bytecode": "0x608060405234801561001057600080fd5b506040516060806109b08339810180604052606081101561003057600080fd5b5080516020820151604090920151600160008190559192918282600160a060020a03821615156100ab576040517f08c379a000000000000000000000000000000000000000000000000000000000815260040180806020018281038252602581526020018061098b6025913960400191505060405180910390fd5b600160a060020a038116151561010c576040517f08c379a00000000000000000000000000000000000000000000000000000000081526004018080602001828103825260248152602001806109676024913960400191505060405180910390fd5b60039290925560028054600160a060020a0319908116600160a060020a03938416179091556001805482169383169390931790925560058054909216941693909317909255506108049050806101636000396000f3fe608060405260043610610071577c010000000000000000000000000000000000000000000000000000000060003504632c4e722e811461007c5780634042b66f146100a3578063521eb273146100b8578063b01e2590146100e9578063ec8ac4d81461012c578063fc0c546a14610152575b61007a33610167565b005b34801561008857600080fd5b5061009161026e565b60408051918252519081900360200190f35b3480156100af57600080fd5b50610091610274565b3480156100c457600080fd5b506100cd61027a565b60408051600160a060020a039092168252519081900360200190f35b3480156100f557600080fd5b5061007a6004803603606081101561010c57600080fd5b50600160a060020a03813581169160208101359160409091013516610289565b61007a6004803603602081101561014257600080fd5b5035600160a060020a0316610167565b34801561015e57600080fd5b506100cd610440565b60008054600101908190553461017d838261044f565b6000610188826104f0565b60045490915061019e908363ffffffff61050d16565b6004556101ab8482610571565b60408051838152602081018390528151600160a060020a0387169233927f6faf93231a456e552dbc9961f58d9713ee4f2e69d15f1975b050ef0911053a7b929081900390910190a36101fd848361026a565b61020561057b565b61020f848361026a565b5050600054811461026a576040805160e560020a62461bcd02815260206004820152601f60248201527f5265656e7472616e637947756172643a207265656e7472616e742063616c6c00604482015290519081900360640190fd5b5050565b60035490565b60045490565b600254600160a060020a031690565b600554604080517f9a43aa98000000000000000000000000000000000000000000000000000000008152600160a060020a038085166004830152915184939290921691639a43aa9891602480820192602092909190829003018186803b1580156102f257600080fd5b505afa158015610306573d6000803e3d6000fd5b505050506040513d602081101561031c57600080fd5b5051151561035e5760405160e560020a62461bcd02815260040180806020018281038252603181526020018061073e6031913960400191505060405180910390fd5b600554604080517fd44f2598000000000000000000000000000000000000000000000000000000008152600160a060020a0384811660048301529151919092169163d44f2598916024808301926020929190829003018186803b1580156103c457600080fd5b505afa1580156103d8573d6000803e3d6000fd5b505050506040513d60208110156103ee57600080fd5b505115156104305760405160e560020a62461bcd0281526004018080602001828103825260408152602001806107996040913960400191505060405180910390fd5b61043a84846105b7565b50505050565b600154600160a060020a031690565b600160a060020a03821615156104995760405160e560020a62461bcd02815260040180806020018281038252602a81526020018061076f602a913960400191505060405180910390fd5b80151561026a576040805160e560020a62461bcd02815260206004820152601960248201527f43726f776473616c653a20776569416d6f756e74206973203000000000000000604482015290519081900360640190fd5b6000610507600354836106bc90919063ffffffff16565b92915050565b60008282018381101561056a576040805160e560020a62461bcd02815260206004820152601b60248201527f536166654d6174683a206164646974696f6e206f766572666c6f770000000000604482015290519081900360640190fd5b9392505050565b61026a82826105b7565b600254604051600160a060020a03909116903480156108fc02916000818181858888f193505050501580156105b4573d6000803e3d6000fd5b50565b6105bf610440565b600160a060020a03166340c10f1983836040518363ffffffff167c01000000000000000000000000000000000000000000000000000000000281526004018083600160a060020a0316600160a060020a0316815260200182815260200192505050602060405180830381600087803b15801561063a57600080fd5b505af115801561064e573d6000803e3d6000fd5b505050506040513d602081101561066457600080fd5b5051151561026a576040805160e560020a62461bcd02815260206004820152601f60248201527f4d696e74656443726f776473616c653a206d696e74696e67206661696c656400604482015290519081900360640190fd5b60008215156106cd57506000610507565b8282028284828115156106dc57fe5b041461056a5760405160e560020a62461bcd02815260040180806020018281038252602181526020018061071d6021913960400191505060405180910390fdfe536166654d6174683a206d756c7469706c69636174696f6e206f766572666c6f77566f74696e67546f6b656e417574686f7269736174696f6e3a2043616c6c6572206973206e6f7420616e2061646d696e2143726f776473616c653a2062656e656669636961727920697320746865207a65726f2061646472657373566f74696e67546f6b656e417574686f7269736174696f6e3a2043616c6c657220697320616e2061646d696e20627574206e6f7420617574686f726973656421a165627a7a72305820bf1332e0d66e38215d545f8fe488b7ddb15c61479387e1e6708de97e26060c32002943726f776473616c653a20746f6b656e20697320746865207a65726f206164647265737343726f776473616c653a2077616c6c657420697320746865207a65726f2061646472657373",
  "source": "pragma solidity ^0.5.3;\n\nimport \"openzeppelin-solidity/contracts/ownership/Ownable.sol\";\nimport \"openzeppelin-solidity/contracts/crowdsale/emission/MintedCrowdsale.sol\";\nimport \"openzeppelin-solidity/contracts/crowdsale/validation/TimedCrowdsale.sol\";\nimport \"./VotingToken.sol\";\nimport \"./Institution.sol\";\nimport \"./ApprovalQueue.sol\";\n\n\n// *****TODO Complete Ownable flow for this contract*****\n\n/**\n * The authorisation of Voting Tokens is implemented as a custom crowdsale - however the concept of purchasing tokens for Ether\n * is not utilised here. In simple terms, that boils down to buyTokens() not being called in the flow of an Institution admin\n * authorising a voter; rather,_deliverTokens() is called, and a token will then be minted and then transferred to the user.\n * Open Zeppelin crowdsale contracts are being inherited to provide automatic protection against reentrancy attacks and to\n * provide common crowdsale functionality without having to reinvent the wheel.\n */\n // TODO check ownable is still relevant\ncontract VotingTokenAuthorisation is MintedCrowdsale {\n\n\n    Institution _institution;\n    VotingToken _theToken;\n\n\n    constructor (Institution institution, address admin, VotingToken votingToken)\n    Crowdsale(1,  address(uint160(admin)), votingToken)\n    public { //isAdmin(admin) { // CAN'T DO THIS BECAUSE _INSTITUTION NOT INITIALISED YET\n        _institution = institution;\n    }\n\n    function sendVotingToken(address voter, uint256 tokenAmount, address admin) public isAdmin(admin) {\n        super._deliverTokens(voter, tokenAmount);\n    }\n\n    modifier isAdmin(address admin)  {\n        require(_institution.isAdminStored(admin), \"VotingTokenAuthorisation: Caller is not an admin!\");\n        require(_institution.isAdminAuthorised(admin), \"VotingTokenAuthorisation: Caller is an admin but not authorised!\");\n        _;\n    }\n\n}",
  "sourcePath": "/Users/erdi/git/final-year-project/dapp-backend/contracts/VotingTokenAuthorisation.sol",
  "compiler": {
    "name": "solc",
    "version": "0.5.3+commit.10d17f24.Emscripten.clang"
  },
  "schemaVersion": "3.0.11",
  "updatedAt": "2019-07-28T01:01:08.762Z",
  "devdoc": {
    "methods": {
      "buyTokens(address)": {
        "details": "low level token purchase ***DO NOT OVERRIDE*** This function has a non-reentrancy guard, so it shouldn't be called by another `nonReentrant` function.",
        "params": {
          "beneficiary": "Recipient of the token purchase"
        }
      },
      "rate()": {
        "return": "the number of token units a buyer gets per wei."
      },
      "token()": {
        "return": "the token being sold."
      },
      "wallet()": {
        "return": "the address where funds are collected."
      },
      "weiRaised()": {
        "return": "the amount of wei raised."
      }
    }
  },
  "userdoc": {
    "methods": {},
    "notice": "The authorisation of Voting Tokens is implemented as a custom crowdsale - however the concept of purchasing tokens for Ether is not utilised here. In simple terms, that boils down to buyTokens() not being called in the flow of an Institution admin authorising a voter; rather,_deliverTokens() is called, and a token will then be minted and then transferred to the user. Open Zeppelin crowdsale contracts are being inherited to provide automatic protection against reentrancy attacks and to provide common crowdsale functionality without having to reinvent the wheel."
  }
}