{
  "contractName": "VotingTokenAuthorisation",
  "abi": [
    {
      "constant": true,
      "inputs": [],
      "name": "hasClosed",
      "outputs": [
        {
          "name": "",
          "type": "bool"
        }
      ],
      "payable": false,
      "stateMutability": "view",
      "type": "function"
    },
    {
      "constant": true,
      "inputs": [],
      "name": "rate",
      "outputs": [
        {
          "name": "",
          "type": "uint256"
        }
      ],
      "payable": false,
      "stateMutability": "view",
      "type": "function"
    },
    {
      "constant": true,
      "inputs": [],
      "name": "weiRaised",
      "outputs": [
        {
          "name": "",
          "type": "uint256"
        }
      ],
      "payable": false,
      "stateMutability": "view",
      "type": "function"
    },
    {
      "constant": true,
      "inputs": [],
      "name": "isOpen",
      "outputs": [
        {
          "name": "",
          "type": "bool"
        }
      ],
      "payable": false,
      "stateMutability": "view",
      "type": "function"
    },
    {
      "constant": true,
      "inputs": [],
      "name": "closingTime",
      "outputs": [
        {
          "name": "",
          "type": "uint256"
        }
      ],
      "payable": false,
      "stateMutability": "view",
      "type": "function"
    },
    {
      "constant": true,
      "inputs": [],
      "name": "wallet",
      "outputs": [
        {
          "name": "",
          "type": "address"
        }
      ],
      "payable": false,
      "stateMutability": "view",
      "type": "function"
    },
    {
      "constant": true,
      "inputs": [],
      "name": "openingTime",
      "outputs": [
        {
          "name": "",
          "type": "uint256"
        }
      ],
      "payable": false,
      "stateMutability": "view",
      "type": "function"
    },
    {
      "constant": false,
      "inputs": [
        {
          "name": "beneficiary",
          "type": "address"
        }
      ],
      "name": "buyTokens",
      "outputs": [],
      "payable": true,
      "stateMutability": "payable",
      "type": "function"
    },
    {
      "constant": true,
      "inputs": [],
      "name": "token",
      "outputs": [
        {
          "name": "",
          "type": "address"
        }
      ],
      "payable": false,
      "stateMutability": "view",
      "type": "function"
    },
    {
      "inputs": [
        {
          "name": "institution",
          "type": "address"
        },
        {
          "name": "admin",
          "type": "address"
        },
        {
          "name": "openingTime",
          "type": "uint256"
        },
        {
          "name": "closingTime",
          "type": "uint256"
        },
        {
          "name": "votingToken",
          "type": "address"
        }
      ],
      "payable": false,
      "stateMutability": "nonpayable",
      "type": "constructor"
    },
    {
      "payable": true,
      "stateMutability": "payable",
      "type": "fallback"
    },
    {
      "anonymous": false,
      "inputs": [
        {
          "indexed": false,
          "name": "prevClosingTime",
          "type": "uint256"
        },
        {
          "indexed": false,
          "name": "newClosingTime",
          "type": "uint256"
        }
      ],
      "name": "TimedCrowdsaleExtended",
      "type": "event"
    },
    {
      "anonymous": false,
      "inputs": [
        {
          "indexed": true,
          "name": "purchaser",
          "type": "address"
        },
        {
          "indexed": true,
          "name": "beneficiary",
          "type": "address"
        },
        {
          "indexed": false,
          "name": "value",
          "type": "uint256"
        },
        {
          "indexed": false,
          "name": "amount",
          "type": "uint256"
        }
      ],
      "name": "TokensPurchased",
      "type": "event"
    },
    {
      "constant": false,
      "inputs": [
        {
          "name": "voter",
          "type": "address"
        },
        {
          "name": "tokenAmount",
          "type": "uint256"
        },
        {
          "name": "admin",
          "type": "address"
        }
      ],
      "name": "sendVotingToken",
      "outputs": [],
      "payable": false,
      "stateMutability": "nonpayable",
      "type": "function"
    }
  ],
  "bytecode": "0x608060405234801561001057600080fd5b5060405160a080610c32833981018060405260a081101561003057600080fd5b5080516020820151604083015160608401516080909401516001600081905593949293919291839083908684600160a060020a03821615156100bd576040517f08c379a0000000000000000000000000000000000000000000000000000000008152600401808060200182810382526025815260200180610c0d6025913960400191505060405180910390fd5b600160a060020a038116151561011e576040517f08c379a0000000000000000000000000000000000000000000000000000000008152600401808060200182810382526024815260200180610be96024913960400191505060405180910390fd5b60039290925560028054600160a060020a03928316600160a060020a03199182161790915560018054929093169116179055428210156101a9576040517f08c379a0000000000000000000000000000000000000000000000000000000008152600401808060200182810382526033815260200180610b7f6033913960400191505060405180910390fd5b818111610201576040517f08c379a0000000000000000000000000000000000000000000000000000000008152600401808060200182810382526037815260200180610bb26037913960400191505060405180910390fd5b600591909155600655505060078054600160a060020a03909416600160a060020a03199094169390931790925550506109408061023f6000396000f3fe6080604052600436106100ae576000357c010000000000000000000000000000000000000000000000000000000090048063521eb27311610076578063521eb27314610148578063b01e259014610179578063b7a8807c146101bc578063ec8ac4d8146101d1578063fc0c546a146101f7576100ae565b80631515bc2b146100b95780632c4e722e146100e25780634042b66f1461010957806347535d7b1461011e5780634b6753bc14610133575b6100b73361020c565b005b3480156100c557600080fd5b506100ce610313565b604080519115158252519081900360200190f35b3480156100ee57600080fd5b506100f761031b565b60408051918252519081900360200190f35b34801561011557600080fd5b506100f7610321565b34801561012a57600080fd5b506100ce610327565b34801561013f57600080fd5b506100f7610342565b34801561015457600080fd5b5061015d610348565b60408051600160a060020a039092168252519081900360200190f35b34801561018557600080fd5b506100b76004803603606081101561019c57600080fd5b50600160a060020a03813581169160208101359160409091013516610357565b3480156101c857600080fd5b506100f761050e565b6100b7600480360360208110156101e757600080fd5b5035600160a060020a031661020c565b34801561020357600080fd5b5061015d610514565b6000805460010190819055346102228382610523565b600061022d8261058b565b600454909150610243908363ffffffff6105a816565b600455610250848261060c565b60408051838152602081018390528151600160a060020a0387169233927f6faf93231a456e552dbc9961f58d9713ee4f2e69d15f1975b050ef0911053a7b929081900390910190a36102a2848361030f565b6102aa610616565b6102b4848361030f565b5050600054811461030f576040805160e560020a62461bcd02815260206004820152601f60248201527f5265656e7472616e637947756172643a207265656e7472616e742063616c6c00604482015290519081900360640190fd5b5050565b600654421190565b60035490565b60045490565b6000600554421015801561033d57506006544211155b905090565b60065490565b600254600160a060020a031690565b600754604080517f9a43aa98000000000000000000000000000000000000000000000000000000008152600160a060020a038085166004830152915184939290921691639a43aa9891602480820192602092909190829003018186803b1580156103c057600080fd5b505afa1580156103d4573d6000803e3d6000fd5b505050506040513d60208110156103ea57600080fd5b5051151561042c5760405160e560020a62461bcd02815260040180806020018281038252603181526020018061087a6031913960400191505060405180910390fd5b600754604080517fd44f2598000000000000000000000000000000000000000000000000000000008152600160a060020a0384811660048301529151919092169163d44f2598916024808301926020929190829003018186803b15801561049257600080fd5b505afa1580156104a6573d6000803e3d6000fd5b505050506040513d60208110156104bc57600080fd5b505115156104fe5760405160e560020a62461bcd0281526004018080602001828103825260408152602001806108d56040913960400191505060405180910390fd5b6105088484610652565b50505050565b60055490565b600154600160a060020a031690565b61052b610327565b1515610581576040805160e560020a62461bcd02815260206004820152601860248201527f54696d656443726f776473616c653a206e6f74206f70656e0000000000000000604482015290519081900360640190fd5b61030f8282610757565b60006105a2600354836107f890919063ffffffff16565b92915050565b600082820183811015610605576040805160e560020a62461bcd02815260206004820152601b60248201527f536166654d6174683a206164646974696f6e206f766572666c6f770000000000604482015290519081900360640190fd5b9392505050565b61030f8282610652565b600254604051600160a060020a03909116903480156108fc02916000818181858888f1935050505015801561064f573d6000803e3d6000fd5b50565b61065a610514565b600160a060020a03166340c10f1983836040518363ffffffff167c01000000000000000000000000000000000000000000000000000000000281526004018083600160a060020a0316600160a060020a0316815260200182815260200192505050602060405180830381600087803b1580156106d557600080fd5b505af11580156106e9573d6000803e3d6000fd5b505050506040513d60208110156106ff57600080fd5b5051151561030f576040805160e560020a62461bcd02815260206004820152601f60248201527f4d696e74656443726f776473616c653a206d696e74696e67206661696c656400604482015290519081900360640190fd5b600160a060020a03821615156107a15760405160e560020a62461bcd02815260040180806020018281038252602a8152602001806108ab602a913960400191505060405180910390fd5b80151561030f576040805160e560020a62461bcd02815260206004820152601960248201527f43726f776473616c653a20776569416d6f756e74206973203000000000000000604482015290519081900360640190fd5b6000821515610809575060006105a2565b82820282848281151561081857fe5b04146106055760405160e560020a62461bcd0281526004018080602001828103825260218152602001806108596021913960400191505060405180910390fdfe536166654d6174683a206d756c7469706c69636174696f6e206f766572666c6f77566f74696e67546f6b656e417574686f7269736174696f6e3a2043616c6c6572206973206e6f7420616e2061646d696e2143726f776473616c653a2062656e656669636961727920697320746865207a65726f2061646472657373566f74696e67546f6b656e417574686f7269736174696f6e3a2043616c6c657220697320616e2061646d696e20627574206e6f7420617574686f726973656421a165627a7a723058201935ecb87305b7e30429fe5dc534eed2fe78e2d93b0e08fef192e28eb90dfbe8002954696d656443726f776473616c653a206f70656e696e672074696d65206973206265666f72652063757272656e742074696d6554696d656443726f776473616c653a206f70656e696e672074696d65206973206e6f74206265666f726520636c6f73696e672074696d6543726f776473616c653a20746f6b656e20697320746865207a65726f206164647265737343726f776473616c653a2077616c6c657420697320746865207a65726f2061646472657373",
  "source": "pragma solidity ^0.5.3;\n\nimport \"openzeppelin-solidity/contracts/ownership/Ownable.sol\";\nimport \"openzeppelin-solidity/contracts/crowdsale/emission/MintedCrowdsale.sol\";\nimport \"openzeppelin-solidity/contracts/crowdsale/validation/TimedCrowdsale.sol\";\nimport \"./VotingToken.sol\";\nimport \"./Institution.sol\";\nimport \"./ApprovalQueue.sol\";\n\n\n// *****TODO Complete Ownable flow for this contract*****\n\n/**\n * The authorisation of Voting Tokens is implemented as a custom crowdsale - however the concept of purchasing tokens for Ether\n * is not utilised here. In simple terms, that boils down to buyTokens() not being called in the flow of an Institution admin\n * authorising a voter; rather,_deliverTokens() is called, and a token will then be minted and then transferred to the user.\n * Open Zeppelin crowdsale contracts are being inherited to provide automatic protection against reentrancy attacks and to\n * provide common crowdsale functionality without having to reinvent the wheel.\n */\n // TODO check ownable is still relevant\ncontract VotingTokenAuthorisation is MintedCrowdsale, TimedCrowdsale {\n\n\n    Institution _institution;\n    VotingToken _theToken;\n\n\n    constructor (Institution institution, address admin, uint256 openingTime, uint256 closingTime, VotingToken votingToken)\n    Crowdsale(1,  address(uint160(admin)), votingToken)\n    TimedCrowdsale(openingTime, closingTime)\n    public { //isAdmin(admin) { // CAN'T DO THIS BECAUSE _INSTITUTION NOT INITIALISED YET\n        _institution = institution;\n    }\n\n    function sendVotingToken(address voter, uint256 tokenAmount, address admin) public isAdmin(admin) {\n        super._deliverTokens(voter, tokenAmount);\n    }\n\n    modifier isAdmin(address admin)  {\n        require(_institution.isAdminStored(admin), \"VotingTokenAuthorisation: Caller is not an admin!\");\n        require(_institution.isAdminAuthorised(admin), \"VotingTokenAuthorisation: Caller is an admin but not authorised!\");\n        _;\n    }\n\n}",
  "sourcePath": "/Users/erdi/git/final-year-project/dapp-backend/contracts/VotingTokenAuthorisation.sol",
  "compiler": {
    "name": "solc",
    "version": "0.5.3+commit.10d17f24.Emscripten.clang"
  },
  "schemaVersion": "3.0.11",
  "updatedAt": "2019-07-18T13:38:02.399Z",
  "devdoc": {
    "methods": {
      "buyTokens(address)": {
        "details": "low level token purchase ***DO NOT OVERRIDE*** This function has a non-reentrancy guard, so it shouldn't be called by another `nonReentrant` function.",
        "params": {
          "beneficiary": "Recipient of the token purchase"
        }
      },
      "closingTime()": {
        "return": "the crowdsale closing time."
      },
      "hasClosed()": {
        "details": "Checks whether the period in which the crowdsale is open has already elapsed.",
        "return": "Whether crowdsale period has elapsed"
      },
      "isOpen()": {
        "return": "true if the crowdsale is open, false otherwise."
      },
      "openingTime()": {
        "return": "the crowdsale opening time."
      },
      "rate()": {
        "return": "the number of token units a buyer gets per wei."
      },
      "token()": {
        "return": "the token being sold."
      },
      "wallet()": {
        "return": "the address where funds are collected."
      },
      "weiRaised()": {
        "return": "the amount of wei raised."
      }
    }
  },
  "userdoc": {
    "methods": {},
    "notice": "The authorisation of Voting Tokens is implemented as a custom crowdsale - however the concept of purchasing tokens for Ether is not utilised here. In simple terms, that boils down to buyTokens() not being called in the flow of an Institution admin authorising a voter; rather,_deliverTokens() is called, and a token will then be minted and then transferred to the user. Open Zeppelin crowdsale contracts are being inherited to provide automatic protection against reentrancy attacks and to provide common crowdsale functionality without having to reinvent the wheel."
  }
}